:1000000004C1000023C1000021C100001FC1000085
:100010001DC100001BC1000019C1000017C1000074
:1000200015C1000013C1000011C100000FC1000084
:100030000DC100000BC1000009C1000007C1000094
:1000400005C1000003C1000001C10000FFC00000A5
:10005000FDC00000FBC00000F9C00000F7C00000B8
:10006000F5C00000F3C00000F1C00000EFC00000C8
:10007000EDC00000EBC00000E9C00000E7C00000D8
:10008000E5C00000E3C00000E1C00000DFC00000E8
:10009000DDC00000DBC00000D9C00000D7C00000F8
:1000A000D5C00000D3C00000D1C00000CFC0000008
:1000B000CDC00000CBC00000C9C00000C7C0000018
:1000C000C5C00000C3C00000C1C00000BFC0000028
:1000D000BDC00000BBC00000B9C00000B7C0000038
:1000E000B5C00000B3C00000B1C00000AFC0000048
:1000F000ADC00000ABC00000A9C00000A7C0000058
:10010000A5C00000A3C00000A1C000009FC0000067
:100110009DC000009BC0000099C0000097C0000077
:1001200095C0000093C0000091C000008FC0000087
:100130008DC000008BC0000089C0000087C0000097
:1001400085C0000083C0000081C000007FC00000A7
:100150007DC000007BC0000079C0000077C00000B7
:1001600075C0000073C0000071C000006FC00000C7
:100170006DC000006BC0000069C0000067C00000D7
:1001800065C0000063C0000061C000005FC00000E7
:100190005DC000005BC0000059C0000057C00000F7
:1001A00055C0000053C0000051C000004FC0000007
:1001B0004DC000004BC0000049C0000047C0000017
:1001C00045C0000043C0000041C000003FC0000027
:1001D0003DC000003BC0000039C0000037C0000037
:1001E00035C0000033C0000031C000002FC0000047
:1001F0002DC000000C94CF0C0C948A0D6F0872086F
:10020000750878087B087E08810811241FBECFEF8F
:10021000CDBFDFE5DEBF00E00CBF11E2A0E0B0E241
:10022000E4E9FDE100E00BBF02C007900D92A034AD
:10023000B107D9F722E2A0E4B1E201C01D92AD37C7
:10024000B207E1F70E94820E0C94C80ED9CE8091BD
:10025000432190914421019680934321909344211E
:1002600080FF60C02091462130914221321749F031
:1002700031E0211101C030E03093422121E0209390
:1002800041218639910508F44DC010924321109206
:10029000442180914121882309F444C020914021C8
:1002A00030E080914521F901EE0FFF1FE20FF31FAF
:1002B000E050F04E8283882349F1F901EE0FFF1FD1
:1002C000E20FF31FE050F04E9081992379F0F9018D
:1002D000EE0FFF1F2E0F3F1FF901E050F04E9181EE
:1002E000992311F0F0D010C0D3D00EC0F901EE0F59
:1002F000FF1F2E0F3F1FF901E050F04E918199230F
:1003000011F037D101C0F9D0882361F080914021EC
:100310008F5F823018F4809340210895109240211D
:10032000109241210895809580930406089580E0FD
:10033000089530916F2220917022822F90E00397D0
:10034000B1F4311116C08091732290917422892BDF
:1003500091F4EDE6F2E288E491E2808791878DEBFB
:1003600091E0848795871286138681E0089580E066
:10037000089580E0089580E00895089510924C213A
:1003800010924A2181E0809348210C949C0E08959C
:100390000C94A00E089529E931E042E650E26AE4A7
:1003A00071E28CE491E219C1089580E008953091E2
:1003B0006F2220917022822F90E00297B9F43111C0
:1003C00017C08091732290917422019799F4EDE601
:1003D000F2E280E691E2808791878BE192E0848768
:1003E000958781E090E082879387089580E0089563
:1003F00080E0089580E008951092642110926221B7
:100400001092562188E0E7E5F1E2DF011D928A951E
:10041000E9F710925F210C94950E08950C94990EB3
:10042000089527ED31E047E850E262E671E284E6A4
:1004300091E2D3C008958091602175CF08950F9304
:100440001F9380915621811118C088E0E7E5F1E201
:10045000AEE4B1E201900D928A95E1F710925F212E
:1004600001E412E028E030E04EE451E260E082E88E
:100470000E947D0B8093562101C080E01F910F9157
:1004800008951092562180915F218111D8CF08954F
:100490001F93CF93DF931F92CDB7DEB79FB799839A
:1004A000F8941981E7E5F1E28095908189238083B2
:1004B00081E080935F21C3DF1FBF81E00F90DF9158
:1004C000CF911F9108951F93CF93DF931F92CDB7C4
:1004D000DEB79FB79983F8941981E7E5F1E290813F
:1004E000892B808381E080935F21A9DF1FBF81E09A
:1004F0000F90DF91CF911F9108951F93CF93DF93BA
:100500001F92CDB7DEB79FB79983F8941981909168
:100510005921992341F08917A9F0EAE5F1E293E026
:100520002191211102C01FBF1EC0281721F09F5F1B
:100530009830B1F705C0983019F0973020F00CC012
:100540001FBF11C092E0E92FF0E0E95AFE4D818112
:1005500080839F5F9730B9F710925E2181E080938E
:100560005F216DDF1FBF81E00F90DF91CF911F9161
:1005700008951F93CF93DF931F92CDB7DEB79FB738
:100580009983F8941981909159219923B1F0891791
:1005900041F0AAE5B1E2E3E09D91992349F0981377
:1005A00003C01FBF81E014C0EF5FE830A9F702C0AD
:1005B000E83021F41FBF80E00BC0E2E0F0E0E95A30
:1005C000FE4D808381E080935F2139DF1FBF81E092
:1005D0000F90DF91CF911F910895CF93DF93DC01AE
:1005E000EA0190916D2299230CF068C0907609F091
:1005F00045C080916E22863009F040C076D1DC0182
:100600001A962C911A97213209F077C02091702206
:1006100030E021323105B1F49C01275F3F4F209338
:10062000752230937622EDE6F2E219968C912681BE
:10063000378190E02817390708F4C901828793872A
:1006400081E068C0FC01478550E04217530709F07C
:1006500056C0C0937522D0937622EDE6F2E2268151
:100660003781DC0150968D919C915197281739075D
:1006700008F4C9018287938781E04CC0903209F069
:1006800040C080916E22823039F0833071F0813029
:10069000D1F5F90119953EC0EDE6F2E2A087B187E8
:1006A00081E090E08287938735C0EDE6F2E26087D3
:1006B000718781E090E0828793872CC0907690329A
:1006C00021F580916E228A3039F08B3051F08930DB
:1006D000F1F4F90119951EC0809170228C9381E08C
:1006E00019C08091732290917422892B91F480918A
:1006F0006F22DB018C9381E00DC080E00BC080E0B5
:1007000009C080E007C080E005C080E003C080E051
:1007100001C080E0DF91CF910895E0916A21F091CE
:100720006B210190F081E02D228133812E0F3F1F3C
:10073000FC014081E40FF11DE217F307A0F4818171
:100740008430A1F0861306C014C081818430A1F0EA
:100750008617A9F08081E80FF11DE217F307A8F3CF
:1007600080E090E0089580E090E0089580E090E0DF
:1007700008958E2F9F2F089580E090E008958E2F8A
:100780009F2F089580916F228F77CBC60895909107
:100790006C21992381F1E0916A21F0916B21019004
:1007A000F081E02D9481891740F5E0936821F09362
:1007B0006921228133812E0F3F1FE217F307F8F4DE
:1007C0009181943061F49281891309C093819613C9
:1007D00006C0E0936821F093692181E0089590813B
:1007E000E90FF11DE217F30758F3E0936821F09346
:1007F000692180E0089580E0089580E0089580E018
:100800000895EF92FF921F93CF93DF93C82F60E07C
:10081000BEDF182F882381F1A0916A21B0916B214E
:10082000EC2FF0E0EE0FFF1F12968D919C91139725
:10083000E80FF91FE080F180D7011696ED91FC9149
:1008400017971995682F8C2FA2DF182F8823A1F0F6
:10085000C0916821D091692165E0CE015EDFEC0195
:10086000892B21F08A810E94960CF6CFD70112962F
:10087000ED91FC9113971995812FDF91CF911F91E5
:10088000FF90EF9008951F93CF93DF93182F7FDF92
:10089000882339F1C0916821D091692165E0CE01AA
:1008A0003CDFEC01892B41F04C815D816B818A81B9
:1008B0004AD68111F3CF15C0A0916A21B0916B2166
:1008C000E12FF0E0EE0FFF1F12968D919C91139790
:1008D000E80FF91F0190F081E02D0190F081E02DEB
:1008E0001995DF91CF911F91089580916821909182
:1008F00069210895CF9380916C218823C1F0E09104
:100900006A21F0916B210190F081E02D8481882390
:1009100071F0C0E08C2F75DFCF5FE0916A21F0911C
:100920006B210190F081E02D8481C81798F310921B
:100930006C218091702181FD0E94940E1092702193
:1009400010927121CF910895CF9380916C218823CB
:1009500049F1A0916A21B0916B21ED91FC91119721
:1009600084818823F9F0C0E0EC2FF0E0EE0FFF1F48
:1009700012968D919C911397E80FF91F0190F081C9
:10098000E02D0084F185E02D309709F01995CF5FB7
:10099000A0916A21B0916B21ED91FC911197848116
:1009A000C81710F3CF9108950F931F93CF93DF9340
:1009B000EDE6F2E2128613861486158616861786F1
:1009C000808188230CF07EC22091732230917422A2
:1009D0002115310509F07BC26DC28F7109F0A0C0ED
:1009E00090916E22963079F0983009F48FC0911171
:1009F00097C02230310509F019C262E070E080E74B
:100A000091E29AD569C280916F2290917022292F2C
:100A1000332722303105A9F020F42130310541F08F
:100A2000C7C123303105D9F12F30310551F1C0C193
:100A30008091062090910720DC016C9170E07CD5BC
:100A400056C0E0910620F09107202189821708F016
:100A5000EDC19927880F991F880F991FE0910820F1
:100A6000F0910920E80FF91F80819181FC016281DA
:100A7000738162D5E0917522F091762282E08183C4
:100A800036C080910A2090910B20009709F4CEC1C6
:100A9000DC0112966D917C9113974ED528C0992751
:100AA0008130910571F038F0029709F08AC1E0E1D8
:100AB000F1E231E209C064E070E08CE391E23CD500
:100AC00016C0E2E3F1E239E0AEECB0E220E0819161
:100AD00090E08D939D932F5F2317C8F3632F660FCC
:100AE0006E5F6093CC2070E08CEC90E225D5EDE653
:100AF000F2E286819781228533858217930708F079
:100B0000EBC18093772290937822E6C121303105A2
:100B100009F08CC161E070E08CE691E20DD5DCC19A
:100B20008130E1F590916E229A30C1F52130310586
:100B300009F04CC180916C21882309F447C1C09110
:100B40007122D091722200916A2110916B21D801FB
:100B5000ED91FC918481C81708F038C160E08C2FBA
:100B600016DE882309F42DC1CE019927880F991F1D
:100B7000D8011296ED91FC911397E80FF91F01909F
:100B8000F081E02D86819781FC01199580936E217B
:100B900061E070E08EE691E2CFD49EC1823009F030
:100BA00010C180916E22811105C12230310509F0FA
:100BB0003DC1809171224FD590E080936621909342
:100BC000672162E070E086E691E2B6D485C18F715C
:100BD00009F09FC090916E22933091F118F49130FA
:100BE000A9F097C0953021F0993009F443C091C025
:100BF0008091732290917422892B09F017C182ECA5
:100C000093E08093792290937A2266C18091732237
:100C100090917422892B09F009C180916F229091E3
:100C20007022019709F002C1809170219091712189
:100C30008D7F80937021909371210E94940E4CC1FE
:100C40008091732290917422892B09F0EFC08091DA
:100C50006F2290917022019709F0AEC080917021AF
:100C600090917121826080937021909371210E94F4
:100C7000930E32C18091732290917422892B09F0D6
:100C8000D5C052D4882309F49CC020916F223091A2
:100C900070223327E0910620F0910720818990E0AF
:100CA0008217930708F48DC025DE80916F22909102
:100CB000702280936C21882309F40EC199278150FA
:100CC000904C880F991F880F991FE0910820F09190
:100CD0000920E80FF91FE0936A21F0936B2101903E
:100CE000F081E02D8481882309F4F6C0C0E060E043
:100CF0008C2FC9DD882309F464C0CF5FE0916A219D
:100D0000F0916B210190F081E02D8481C81778F378
:100D1000E3C08130E9F490916E229B30C9F4809158
:100D2000732290917422892B09F050C080916C211C
:100D3000882309F44BC0EDE6F2E2C481D2818C2F06
:100D400060DD882309F43DC06D2F8C2F9CDD37C0FA
:100D50008230B9F580916E22813019F0833099F09C
:100D60002DC08091732290917422892B09F05EC06E
:100D700080916F2290917022892B09F057C0809149
:100D8000712284D41CC08091732290917422892B8B
:100D900009F04CC080916F2290917022892B09F04C
:100DA00045C0CDE6D2E28C8172D58C81DBD507C0FF
:100DB00080E005C080E003C080E001C080E08111D8
:100DC0008CC080916D228F71813081F580916C2172
:100DD000882309F471C00091712210917222C09190
:100DE0006A21D0916B21E881F9818481081708F08C
:100DF00065C060E0802FCBDC8823C1F0F801FF27BD
:100E0000CF01880F991FEA81FB81E80FF91FC0818C
:100E1000D181EE81FF811995682F802FB8DC88235E
:100E200029F0EC81FD811995811157C080916D22C7
:100E30008F71823009F044C080916C218823B1F118
:100E4000A0916A21B0916B21ED91FC911197848161
:100E5000882371F1C0E0EC2FF0E0EE0FFF1F129637
:100E60008D919C911397E80FF91F00811181D80192
:100E70001696ED91FC9117971995682F8C2F87DCAA
:100E8000882359F1D8011496ED91FC911597199585
:100E9000811123C0CF5FA0916A21B0916B21ED91A8
:100EA000FC9111979481C917B0F217C080E015C06A
:100EB00080E013C080E011C080E00FC080E00DC072
:100EC00080E00BC0982F907609F07BCF80CE982FD2
:100ED000907609F076CF81CD81E0DF91CF911F919F
:100EE0000F910895CF93DF931F921F92CDB7DEB776
:100EF000811126C0909164229923F9F09091682283
:100F0000911101C0FFCF9FB79A83F8942A81E7E639
:100F1000F2E29181915091832FBF0FC0909168228E
:100F20009F3F09F4FFCF9FB79983F8942981E7E6A3
:100F3000F2E291819F5F91832FBF8093642205C06D
:100F400090916422992351F3F8CF0F900F90DF9185
:100F5000CF9108950F93E8ECF4E080818F7D80833A
:100F600080818F7D8083E8E3F2E202E005931092B6
:100F70003A2210923B2200E2069300E40693E0E35B
:100F8000F2E200E40693EDE6F2E214861586168698
:100F9000178612861386109223220F9108950F93BD
:100FA00085E080932322E9E3F2E204E00593E1E3A4
:100FB000F2E204E005930F9108950F9383E080938C
:100FC000232210923A2210923B22E8E3F2E202E05E
:100FD00006930F910895E0917922F0917A2230974B
:100FE00009F0199508950F93CF93DF9380912322F1
:100FF000833019F4F0DFAEDF5EC080911F22909144
:101000002022C0917722D0917822C81BD90B71F58C
:101010002091212230912222820F931F809321223E
:101020009093222220917322309174228217930789
:1010300021F080917221882341F084E08093232263
:10104000E0E3F2E202E0069336C0E0917B22F09109
:101050007C22309799F01995882381F010921F22F5
:1010600010922022C0917722D0917822C830D105E9
:1010700028F010927221C8E0D0E003C081E0809394
:101080007221E4E2F2E2C68BD78B80911F2290910D
:1010900020222091752230917622280F391F208F2F
:1010A000318FC80FD91FC0931F22D0932022E8E3AD
:1010B000F2E202E00693DF91CF910F910895FC01D7
:1010C0008181E82FE7708E2F90E0FC013197E730A7
:1010D000F105D0F48827E250FF4F8F4F48C680E1DA
:1010E00090E0089580E290E0089580E490E0089513
:1010F00080E890E0089580E091E0089580E092E03B
:1011000008958FEF93E0089588E090E00895282FE8
:101110002F7030E0220F331F082E000C990B882708
:10112000990F881F9927820F931F02979C01220F06
:10113000331F220F331F220F331F820F931F8D5037
:101140009E4D08950F93CF938091CC0480FF64C08F
:1011500081E08093CC04E0E3F2E200E80693E8E368
:10116000F2E200E806938093CA04E0E3F2E200E1D1
:10117000069380912322882329F08350823008F43B
:101180002ADFE8DE8091322290913322089709F01D
:1011900045C088E0E7E1F2E2ADE6B2E201900D92EF
:1011A0008A95E1F7E8ECF4E08081806280838081B9
:1011B00080628083F9DBC82F811103C0F0DEC1E0BB
:1011C0002EC080916D2288236CF4109221221092FF
:1011D000222210921F221092202282E0809323224A
:1011E00002DF1DC08091732290917422892B11F42B
:1011F000E4DE15C0109221221092222210921F22AA
:101200001092202281E080932322E0E3F2E202E0C8
:10121000069300E2069303C0C0E001C0C1E08C2F3A
:10122000CF910F9108958F929F92AF92BF92DF92CC
:10123000EF92FF920F931F93CF93DF93D82E67DF28
:101240008C01CD2DCF70D0E0CE01880F991FCD2D10
:101250000D2C000CDD0BCC27DD0FCC1FDD27C80FBC
:10126000D91FCE01880F991F880F991F880F991FCA
:101270009C01205D3D4D7901C90121DF4C01DD203C
:101280000CF079C0FE01EE0FFF1FEE0FFF1FEE0FF7
:10129000FF1FEC5DFD4D22893389D80115968D9194
:1012A0009C911697820F931F15968D939C9316977A
:1012B00013962D913C9114978217930709F445C01A
:1012C000281B390B2115B4E03B0738F02FEF33E032
:1012D000C901B40138D5281B390BF801808181FF81
:1012E00009C0C901B4012FD541E0892B09F040E0C4
:1012F000842F01C080E0D8019C9180FB91F99C93E0
:10130000FE01EE0FFF1FEE0FFF1FEE0FFF1FEC5D44
:10131000FD4D128A138A2687378711962D913C91AD
:10132000129715968D919C911697820F931FCC0F53
:10133000DD1FCC0FDD1FCC0FDD1FCC5CDD4D8883A6
:101340009983F70102E00693E0C0D8018C9181FFF8
:10135000C9C08D7F8C93CC0FDD1FCC0FDD1FCC0F50
:10136000DD1FCC5DDD4D1A8A1B8A1E861F86F701A4
:1013700002E00693CAC0FE01EE0FFF1FEE0FFF1F33
:10138000EE0FFF1FEC5DFD4DA684B784D8018C9154
:1013900082FF19C01196ED91FC91129715962D912F
:1013A0003C91169713968D919C911497B401CBD4D0
:1013B000B0E4DB9EB00111246D5C7E4DAC01CF0129
:1013C000820F931FDCD4F801258136812A0D3B1D45
:1013D00025833683838194818217930768F48583FC
:1013E0009683CC0FDD1FCC0FDD1FCC0FDD1FCC5D36
:1013F000DD4D8A899B8976C0FE01EE0FFF1FEE0F3F
:10140000FF1FEE0FFF1FEC5DFD4D42895389A416AF
:10141000B50609F067C02817390709F463C0AC01A5
:10142000421B530B9A01211554E0350740F02FEF72
:1014300033E0C901B40187D4281B390B05C0C901A9
:10144000B40181D4281B390BFE01EE0FFF1FEE0FF4
:10145000FF1FEE0FFF1FEC5DFD4D1686178628154A
:10146000390500F5D8018C9184608C93B0E4DB9E43
:10147000C00111248D5C9E4DFE01EE0FFF1FEE0F8B
:10148000FF1FEE0FFF1FEC5CFD4D80839183CC0F9F
:10149000DD1FCC0FDD1FCC0FDD1FCC5DDD4D8A8A3B
:1014A0009B8A1CC0F8014181528185819681840FFD
:1014B000951FFE01EE0FFF1FEE0FFF1FEE0FFF1F28
:1014C000EC5CFD4D80839183CC0FDD1FCC0FDD1FC5
:1014D000CC0FDD1FCC5DDD4D2A8B3B8BF70102E08D
:1014E000069313C0D8018C9180FF0FC08E7F8C9320
:1014F0001796ED91FC911897309739F015966D91EC
:101500007C9116974D2D80E01995DF91CF911F9119
:101510000F91FF90EF90DF90BF90AF909F908F90D2
:1015200008958093C30408958091C3040895809121
:101530006022909161220895EDE6F2E28087918722
:10154000628773870895282F2F7030E0220F331F92
:10155000082E000C990B8827990F881F9927820F56
:10156000931FFC01EE0FFF1FEE0FFF1FEE0FFF1F7B
:10157000EC5DFD4D2585207C09F069C0637061300C
:1015800011F018F404C060EC03C060E801C060E42E
:1015900040385105E9F050F440325105A9F040348B
:1015A0005105A1F040315105D9F40CC0411522E09C
:1015B000520791F04F3F23E0520781F0411551400F
:1015C00079F408C021E00DC022E00BC023E009C07F
:1015D00024E007C025E005C026E003C027E001C0E5
:1015E00020E0FC01EE0FFF1FEE0FFF1FEE0FFF1FAD
:1015F000EC5DFD4D158636E03487262B2587FC01F2
:10160000EE0FFF1FEE0FFF1FEE0FFF1FEC5DFD4DF6
:101610002585207C203C69F4FC01EE0FFF1FEE0FB6
:10162000FF1FEE0FFF1FEC5DFD4D25852770273056
:1016300081F0880F991F880F991F880F991FFC014F
:10164000EC5DFD4D85858062858781E0089580E0B1
:10165000089581E00895E82FEF70F0E0EE0FFF1F8E
:10166000082E000C990B8827990F881F9927E80FDF
:10167000F91FEE0FFF1FEE0FFF1FEE0FFF1FEC5DB8
:10168000FD4D858582FB882780F908950F93282FCB
:101690002F7030E0A901440F551F282F082E000C91
:1016A000330B2227330F221F3327240F351FA901A5
:1016B000440F551F440F551F440F551FFA01E05D9D
:1016C000FD4D01E00693FA01EC5DFD4D958592FF1D
:1016D00011C0FA01EC5DFD4D95859B7F958717DD67
:1016E000FC01808180FF06C08E7F80830780F085AB
:1016F000E02D199581E00F9108956F927F928F925E
:101700009F92AF92BF92CF92DF92EF92FF920F9390
:101710001F93CF93DF931F92CDB7DEB7782E662E3F
:101720004A015901F4DC6C01272D872D8F70E82EBA
:10173000F12CC701880F991FE72C072C000CFF081C
:10174000EE24FF0CEE1CFF24E80EF91EF701EE0F4D
:10175000FF1FEE0FFF1FEE0FFF1FEC5DFD4D858598
:10176000807C09F481C0F701EE0FFF1FEE0FFF1F11
:10177000EE0FFF1FEC5DFD4D8585807C803C61F0A8
:10178000F701EE0FFF1FEE0FFF1FEE0FFF1FEC5DC7
:10179000FD4D858582FD6AC08FB78983F894898164
:1017A000F601908190FF03C08FBF80E060C0F6011A
:1017B0009081916090838FBF81829282A382B48254
:1017C0001582168207831087611006C091E0A1146C
:1017D000B10419F090E001C091E0F601808190FB26
:1017E00081F98B7F8083222364F4F701EE0FFF1FC2
:1017F000EE0FFF1FEE0FFF1FEC5DFD4D128A138AE7
:101800002FC0F701EE0FFF1FEE0FFF1FEE0FFF1FA0
:10181000EC5DFD4D8585807C803CA9F4C701880F77
:10182000991F880F991F880F991F805D9D4D47DC78
:10183000BC01C50188D2892B31F0F60180818E7FF1
:10184000808380E014C0F701EE0FFF1FEE0FFF1F33
:10185000EE0FFF1FEC5DFD4D16861786128A138A68
:10186000872DE1DC81E003C080E001C080E00F90C3
:10187000DF91CF911F910F91FF90EF90DF90CF906C
:10188000BF90AF909F908F907F906F900895FF9240
:101890000F931F93CF93DF93182FC82FCF70D0E0F3
:1018A000CE01880F991FC12F012E000CDD0BCC2714
:1018B000DD0FCC1FDD27C80FD91F812F28DCDC01ED
:1018C000FE01EE0FFF1FEE0FFF1FEE0FFF1FE05D8B
:1018D000FD4D02E005938C9180FF22C08E7F8C939A
:1018E0001796ED91FC9118973097D1F011235CF485
:1018F000CC0FDD1FCC0FDD1FCC0FDD1FCC5DDD4D10
:101900006A897B890AC0CC0FDD1FCC0FDD1FCC0F8D
:10191000DD1FCC5DDD4D6E857F85412F81E0199502
:10192000DF91CF911F910F91FF900895CF93C82F12
:10193000AEDFEC2FEF70F0E0EE0FFF1F8C2FCC0F1F
:10194000990B8827990F881F9927E80FF91FEE0F29
:10195000FF1FEE0FFF1FEE0FFF1FEC5DFD4D158605
:10196000CF910895E82FEF70F0E0EE0FFF1F282FC2
:10197000082E000C330B2227330F221F3327E20FD0
:10198000F31FEE0FFF1FEE0FFF1FEE0FFF1FEC5DAB
:10199000FD4D9585946095877ADF81E008951F92CB
:1019A0000F920FB60F9211240BB60F920F932F9335
:1019B0003F934F935F936F937F938F939F93AF93D7
:1019C000BF93EF93FF938091CB0488233CF480E88E
:1019D0008093CA040E94A4049AD188C08091CB0449
:1019E00082FF20C084E08093CA048091382286FF61
:1019F0007DC08091CC0481FD79C0A4DB811176C0CB
:101A000080912322813011F4D8DA70C0843009F03B
:101A10006DC0E9E3F2E204E00593E1E3F2E204E001
:101A2000059364C08091CB0481FF5BC082E080930A
:101A3000CA048091302286FF59C08091CC0481FD78
:101A400055C080DB811152C080912322823041F445
:101A500084E080932322E0E3F2E202E0069346C0B2
:101A6000833009F043C0E9E3F2E204E00593E1E3E7
:101A7000F2E204E005933AC080E18093CA0481E079
:101A800006DF81E804DF82E002DF82E800DF0E94F7
:101A90007A041092C304E4E2F2E2158696E0948799
:101AA00080E48587158A948B858B87E192E2808B11
:101AB000918B50DA1BC08091CB0486FF07C080E475
:101AC0008093CA0480E00EDA20D110C08091CB044C
:101AD00085FF0CC080E28093CA0481E003DA16D14E
:101AE00005C08091CB0484FDC7CFE5CFFF91EF9176
:101AF000BF91AF919F918F917F916F915F914F9126
:101B00003F912F910F910F900BBE0F900FBE0F9032
:101B10001F9018951F920F920FB60F9211240BB6BB
:101B20000F920F931F932F933F934F935F936F9356
:101B30007F938F939F93AF93BF93CF93DF93EF9355
:101B4000FF938091CC0481FD03C0FCDA8111C3C0F6
:101B500082E08093CC048091C5048195880FE0E3F6
:101B6000F2E2E81BF109208131812053324236959F
:101B700027953695279536952795822F869520FDB2
:101B800002C090E001C090E8890FE82FEF70F0E00C
:101B9000EE0FFF1F282F082E000C330B2227330FC8
:101BA000221F3327E20FF31FDF01AA0FBB1FAA0F6B
:101BB000BB1FAA0FBB1FAC5DBD4D1C969C9195FF32
:101BC0008AC0EE0FFF1FEE0FFF1FEE0FFF1FE05D3D
:101BD000FD4D00E20693811179C08091232284306B
:101BE00019F4F9D9B7D977C0009132221091332274
:101BF0008091772290917822C0911F22D09120224B
:101C000098012C0F3D1F8217930718F48C010C1BB1
:101C10001D0B8091752290917622A80167E172E2F6
:101C20008C0F9D1FACD0C00FD11FC0931F22D0932B
:101C300020220830110569F48091212290912222FE
:101C40008C0F9D1F2091732230917422821793076D
:101C500080F0EDE6F2E2C287D3870684F785E02DB7
:101C6000309729F01995811102C099D934C0A5D9AE
:101C700032C08091772290917822C817D907F9F461
:101C8000E0917B22F0917C22309711F488D923C017
:101C90001995811102C083D91EC020912122309153
:101CA000222280911F2290912022820F931F8093E5
:101CB00021229093222210921F2210922022E0E3F0
:101CC000F2E202E0069300E2069305C0803811F4C8
:101CD0008AD901C0A8DAFF91EF91DF91CF91BF912E
:101CE000AF919F918F917F916F915F914F913F91B4
:101CF0002F911F910F910F900BBE0F900FBE0F9061
:101D00001F90189580E090E00895089508958091BF
:101D10006622882339F080916522882319F007DC38
:101D20000C94270108950895089581E08093662218
:101D3000089510926622089581E0809365220895A7
:101D4000109265220895AA1BBB1B51E107C0AA1F70
:101D5000BB1FA617B70710F0A61BB70B881F991F4C
:101D60005A95A9F780959095BC01CD010895EE0F85
:101D7000FF1F881F8BBF0790F691E02D1994FB0180
:101D8000DC0102C001900D9241505040D8F70895F7
:041D9000F894FFCFF5
:101D940000010000000050200C200000142010203E
:101DA400C2207D2009023B00020100A03209040088
:101DB400000103000000092111010001223B00077A
:101DC4000582030800020904010001030000000960
:101DD4002111010001221B000705810308000400F2
:101DE4001201000200000008EB033321000101028C
:101DF400000105010904A101A1000501093009310F
:101E0400150026FF00750895028102C0C0BE01C8F6
:101E140001CB019701000005010906A1010507197D
:101E2400E029E71500250175019508810281011952
:101E340000296515002565750895068100050819B2
:101E44000129051500250175019505910295039158
:101E540001C0FC010E021102D501000000030000C4
:101E6400000000000000000000000000000000006E
:101E7400000000000000000000000000000000005E
:101E8400000000000000000000000000000000004E
:101E9400000000000000000000000000000000003E
:101EA400436F6D706F7369746520484944204B65B6
:101EB40079626F617264202B204A6F79737469634D
:101EC4006B0041544D454C20415346000403090422
:00000001FF
