:100000000DC100002CC100002AC1000028C1000061
:1000100026C1000024C1000022C1000020C1000050
:100020001EC100001CC100001AC1000018C1000060
:1000300016C1000014C1000012C1000010C1000070
:100040000EC100000CC100000AC1000008C1000080
:1000500006C1000004C1000002C1000000C1000090
:10006000FEC00000FCC00000FAC00000F8C00000A4
:10007000F6C00000F4C00000F2C00000F0C00000B4
:10008000EEC00000ECC00000EAC00000E8C00000C4
:10009000E6C00000E4C00000E2C00000E0C00000D4
:1000A000DEC00000DCC00000DAC00000D8C00000E4
:1000B000D6C00000D4C00000D2C00000D0C00000F4
:1000C000CEC00000CCC00000CAC00000C8C0000004
:1000D000C6C00000C4C00000C2C00000C0C0000014
:1000E000BEC00000BCC00000BAC00000B8C0000024
:1000F000B6C00000B4C00000B2C00000B0C0000034
:10010000AEC00000ACC00000AAC00000A8C0000043
:10011000A6C00000A4C00000A2C00000A0C0000053
:100120009EC000009CC000009AC0000098C0000063
:1001300096C0000094C0000092C0000090C0000073
:100140008EC000008CC000008AC0000088C0000083
:1001500086C0000084C0000082C0000080C0000093
:100160007EC000007CC000007AC0000078C00000A3
:1001700076C0000074C0000072C0000070C00000B3
:100180006EC000006CC000006AC0000068C00000C3
:1001900066C0000064C0000062C0000060C00000D3
:1001A0005EC000005CC000005AC0000058C00000E3
:1001B00056C0000054C0000052C0000050C00000F3
:1001C0004EC000004CC000004AC0000048C0000003
:1001D00046C0000044C0000042C0000040C0000013
:1001E0003EC000003CC000003AC0000038C0000023
:1001F00036C000000C9471140C942F1506044C04A6
:10020000FC034E04FE0300040204040406045E0F13
:10021000610F640F670F6A0F6D0F700F11241FBEFF
:10022000CFEFCDBFDFE5DEBF00E00CBF11E2A0E005
:10023000B0E2E0E3FDE200E00BBF02C007900D92E8
:10024000A839B107D9F723E2A8E9B1E201C01D92AC
:10025000AD3DB207E1F70E9427160C949616D0CE5A
:1002600080E008953091CF232091D023822F90E019
:100270000297C1F4311118C08091D3239091D423F7
:100280000197A1F4EDECF3E288E991E28087918790
:1002900081E090E0828793878BE791E08487958760
:1002A00081E0089580E0089580E0089580E0089559
:1002B00081E080939A2108950F931F930BE711E03B
:1002C00021E030E048E951E260E083E00E941F1342
:1002D0001F910F910895CF9310929E2110929C210F
:1002E00081E080939A21E8DFC82F81110E94651672
:1002F0008C2FCF910895811107C06130710521F4D1
:1003000088E991E20E946C16D7CF08950C94691683
:10031000089522E331E040E050E26CE971E28EE9B9
:1003200091E20C94CA090895FF920F931F93CF9303
:10033000DF931F92CDB7DEB79C0180919A2188236D
:1003400009F1F9018FB78983F894F9801092982107
:100350001092992180819181809398219093992185
:1003600008E511E022E030E048E951E260E084E88D
:100370000E941F1391E0892780939A21FFBE8091EC
:100380009A2189270F90DF91CF911F910F91FF90B4
:100390000895E0E0F6E09FEF91839583E0E2F6E0D8
:1003A0003FE3328388E1808B818B828B838B848BCC
:1003B000858B20EC218340E4458340E84583E0E4DD
:1003C000F6E04CEF4283828B838B848B858B868B0C
:1003D000878B43E041834583E0E6F6E03283808B00
:1003E000818B828B838B848B858B21832683E0E8B2
:1003F000F6E09283808B818B828B838B848B858BC1
:10040000868B878BE0EAF6E090EF9283848B858B76
:10041000868B878B8FE0818385839CD20DC1089565
:10042000809148062091680690E0922B96958795DA
:1004300096958795BC017F7080FF17C021E030E062
:10044000E1E0F0E0822FAF01022E02C0440F551F01
:100450000A94E2F746235723452B41F02F5F3F4F85
:100460002C30310579F78FEF089580E00895809161
:1004700088062091280690E0922BBC017F7080FFB7
:1004800017C021E030E0E1E0F0E0822FAF01022E62
:1004900002C0440F551F0A94E2F746235723452B09
:1004A00041F02F5F3F4F2C30310579F78FEF0895E2
:1004B00080E008958823F4F19BEF980F9230E0F1EB
:1004C000853034F495E0981B923008F042C036C075
:1004D0009AEF980F9230B0F531C062E023E030E03F
:1004E00090E080E0E1E0F0E0AF01022E02C0440FB6
:1004F000551F0A94E2F7842B9F5F2150310996170C
:1005000098F308958150482F50E04B5F5F4F24E0EF
:1005100030E080E0E1E0F0E0BF01022E02C0660FB3
:10052000771F0A94E2F7862B2F5F3F4F241735077A
:1005300099F7089580E0089588E1089585306CF278
:1005400082E0E0CF8550853008F084E08111DACF79
:10055000089566E0681B653008F064E06111BECF65
:1005600080E00895CF935CDFC82F81DFCC2324F493
:100570008823C4F090E009C0C6301CF09BEF9C0FAC
:1005800002C095E09C1B882354F086301CF02BEFB2
:10059000280F02C025E0281B921708F4C82F8C2FC3
:1005A00089DF01C080E0CF91089561DF88233CF0AE
:1005B000E82F880FFF0BE457FE4D808101C080E8D3
:1005C0008093A0212DDF88233CF0E82F880FFF0BBC
:1005D000E457FE4D808101C080E8E0EAF1E28183CA
:1005E000208190912620291304C0909127209817EC
:1005F00071F080EA91E2DDD5882349F0E6E2F0E28D
:10060000A0EAB1E28C91808311968C918183089548
:10061000A9DF8093C423909128069093C5239091DD
:10062000C52394FD07C0882331F09FD18091C42356
:10063000A2C10895BACF08951092AD211092AA21B7
:100640001092AB211092A8211092AE211092AC21F1
:10065000E4EBF1E281E6808380E6818312821382FB
:100660008FE584838EE58583168217828DE58087EA
:100670001186128613861486158689E586878BE592
:100680008787108A118A8AE5828B8CE5838BEFEA53
:10069000F1E28EE080838DE081838BE0828387E0CE
:1006A00083838FEF848308950F931F93CF93DF93FA
:1006B0009091A52120E030E015E074E0E0EAF6E05A
:1006C000A0E2B6E000E8622FE901C155DE4D888165
:1006D0008483243021F416960C93169703C0159644
:1006E0000C93159780858095807F482F50E0EA0114
:1006F00021974C235D23452B41F09095982309F4D5
:10070000982F492F4195942301C0982F903251F092
:1007100018F49031D9F10AC09034D1F1903831F405
:1007200073E037C0992311F0162F71E02F5F3F4F10
:10073000982F2530310539F68093A52180E88093E4
:1007400025067430E0F4E12FF0E0EE0FFF1FEE0F0E
:10075000FF1FEC54FE4DE70FF11D80819091AD21FC
:10076000911106C08093AC2181E08093AD2113C02C
:100770009091AC21891779F08093AC210CC08091C5
:10078000AD21813041F41092AD2105C070E001C06F
:1007900072E0162FCBCFDF91CF911F910F9108956B
:1007A0008091AD210895809128068093C623809181
:1007B000AD218093AA218091AC218093A9218091C1
:1007C000C62384FD29C08091AA21813009F054C03C
:1007D0008091AB21811150C0E091A9218E2F90E032
:1007E000FC01E955F109E930F10590F48827E25060
:1007F000FF4F8F4F0C94851684E009C080E107C03D
:1008000080E205C080E403C080E801C081E0BDD083
:1008100081E08093A82130C09091AC218091AA21E1
:10082000813061F48091AB21811108C09093A421A3
:1008300081E08093A7219093A6211EC08091AA21D8
:10084000813061F48091A421981741F09093A42104
:1008500081E08093A7219093A6210EC08091AA21C8
:1008600081110AC08091AB21813031F41092A7210F
:100870008091A4218093A6218091C62384FF07C084
:100880008091A821813019F470D01092A821809114
:10089000AA218093AB21089582E0B9CF88E0B7CF39
:1008A000CF9302DF80DF8091A721C1E0811101C0D9
:1008B000C0E0882381F08091A6219091A32191111D
:1008C00003C08093A22115C09091A221891789F0BD
:1008D0008093A2210EC08091A321882351F08091A2
:1008E000A221882321F022D58091A221E3D4109265
:1008F000A221C093A321CF910895EAECF1E220E078
:1009000030E090E0AC01022E02C0559547950A9464
:10091000E2F740FD60832F5F3F4F3196283031056D
:1009200089F70895809128068093D221BDDE8091B9
:10093000D22184FF0AC034DF813049F013DE91E018
:10094000811101C090E0892F03C081E001C081E0E6
:1009500081700895E0E0F6E08FEF81838583E0E227
:10096000F6E080E48183868308958FEF8093050607
:1009700060E0C3CF08958093060661E0BECF08957E
:100980008093050660E0B9CF089580930706EAECEE
:10099000F1E220E030E0682F70E081E0AB01022E50
:1009A00002C0559547950A94E2F740FF03C0908135
:1009B000982790832F5F3F4F31962830310571F78C
:1009C0000895E0E0F6E09FEF95838683EAECF1E29C
:1009D00020E030E090E0AC01022E02C05595479532
:1009E0000A94E2F7417041932F5F3F4F2830310561
:1009F00091F70895EAECF1E220E030E080E061E078
:100A000070E09191992341F0AB01022E02C0440F96
:100A1000551F0A94E2F7842B2F5F3F4F2830310592
:100A200081F70895CF93DF931F92CDB7DEB7E2DF52
:100A300089839091C921891741F0CE01019674DC18
:100A4000882319F089818093C9210F90DF91CF917C
:100A500008958091D3219091D42101968093D32140
:100A60009093D4218091280684FD0FC08091D321DA
:100A70009091D421843F914078F080E480932706C0
:100A80001092D3211092D421089580E480932606F9
:100A90001092D3211092D42108956F927F928F9259
:100AA0009F92AF92BF92CF92DF92EF92FF920F93FD
:100AB0001F93CF93DF93CDB7DEB72897CDBFDEBFAF
:100AC00098E0E4E8F1E2DE01119601900D929A952A
:100AD000E1F7833009F40CC138F4813009F442C0E5
:100AE000823009F4A5C031C2843009F461C1853077
:100AF00009F4BAC12AC2F801F1908F018F2D3BDFB2
:100B0000FFE028E982E0F15020408040E1F700C09A
:100B100000008F2D35DF06DF8093C821A016B106B7
:100B200009F4B9C18091C821882329F3B4C1F8011F
:100B3000F2908F018F2D1FDFFFE028E982E0F15056
:100B400020408040E1F700C000008F2D19DFEADE71
:100B50008093C8210C151D0561F08091C821882360
:100B600031F307C05E0199E0A90EB11CFE01319678
:100B70006F018091C821811106C08091C82188230E
:100B800009F4CEC188C1F1DEE0C1F80172908F0195
:100B9000872DF1DEF601F1906F018F2DECDEFFE184
:100BA0002FEB82E0F15020408040E1F700C00000D0
:100BB000872DE6DE8F2DE4DE77DDF2DD813011F466
:100BC000E092C821CFDC8111E092C82108151905F7
:100BD00009F466C18091C8218823B9F261C1F3018B
:100BE000D1903F018D2DC7DEF801F2908F018F2D3E
:100BF000C2DEFFE12FEB82E0F15020408040E1F7C0
:100C000000C000008D2DBCDE8F2DBADE4DDDC8DDAD
:100C1000813011F4E092C821A5DC8111E092C82155
:100C20000A151B0571F08091C8218823C1F209C003
:100C3000FE0131964F01EE24E3945E01F5E0AF0E24
:100C4000B11C8091C82181110AC08091C8218111F5
:100C500027C16E0125E0C20ED11C860196CF85DE2C
:100C600074C1F80182918F0186DEF70181917F01C5
:100C700082DEFFE227E585E0F15020408040E1F789
:100C800000C0000011DD8CDD813011F49092C8218C
:100C900069DC81119092C821A016B10609F40BC13C
:100CA0008091C8218823E9F206C1F70181917F0173
:100CB00067DEF80182918F0163DEFFE227E585E0C0
:100CC000F15020408040E1F700C00000EDDC68DD1D
:100CD000813011F49092C82145DC81119092C82195
:100CE000C016D10671F08091C8218823F1F209C0A5
:100CF000FE0131965F01992493946E01F5E0CF0EC9
:100D0000D11C8091C82181110AC08091C821811114
:100D1000D2C07E0125E0E20EF11C8701A2CF25DEC4
:100D200014C1F80182918F0126DEF70181917F01C4
:100D300022DEFFE227E585E0F15020408040E1F728
:100D400000C00000B1DC2CDD813011F4B092C8216C
:100D500009DC8111B092C8210C151D0509F4B6C03B
:100D60008091C8218823E9F2B1C0F80182918F01F6
:100D700007DEF70181917F0103DEFFE227E585E0D1
:100D8000F15020408040E1F700C000008DDC08DD1C
:100D9000813011F4B092C821E5DB8111B092C821F5
:100DA000C016D10651F08091C8218823F1F205C008
:100DB000FE0131966F01BB24B3948091C82181114B
:100DC0000AC08091C821811181C07E01F5E0EF0E3B
:100DD000F11C8701A6CFC9DDB8C0F70181917F0161
:100DE000CADDF80182918F01C6DDFFE227E585E0CB
:100DF000F15020408040E1F700C0000055DCD0DC1D
:100E0000813011F4B092C821ADDB8111B092C821BC
:100E10000C151D0509F464C08091C8218823E9F2EE
:100E20005FC0F70181917F01ABDDF80182918F01F5
:100E3000A7DDFFE227E585E0F15020408040E1F7A3
:100E400000C0000031DCACDC813011F4B092C8216C
:100E500089DB8111B092C8210C151D0559F08091D4
:100E6000C8218823F1F206C06E0195E0C90ED11C9D
:100E7000BB24B3948091C82181110BC08091C821FB
:100E800081112EC0FE0131967F018E01075F1F4F39
:100E9000A4CF6BDD5AC08091C821882361F169CE4F
:100EA0008091C8218111CDCECE0101963C018E01E9
:100EB000075F1F4F94CE8091C821811122CFFE0180
:100EC00031967F018E01075F1F4FEFCE8091C821C1
:100ED000811173CF7E01F5E0EF0EF11C870145CF44
:100EE0008091C8218111C6CFCE0101967C018E016F
:100EF000075F1F4F96CF1885812F3DDD9FE0E8E902
:100F0000F2E09150E040F040E1F700C00000812F96
:100F100037DD08DD8093C8218E01085F1F4F1DCE8D
:100F20001981812F28DD2FE088E992E0215080404F
:100F30009040E1F700C00000812F22DDF3DC8093B8
:100F4000C8218E010E5F1F4FEDCD2896CDBFDEBFAD
:100F5000DF91CF911F910F91FF90EF90DF90CF9095
:100F6000BF90AF909F908F907F906F90089511CA1F
:100F7000089593CD08954CCB089592CC089552CD09
:100F800008951FCD089565CD08950F931F93CF93B6
:100F9000DF93CDB7DEB72797CDBFDEBF8FEF80934E
:100FA000700080937100809372008093730080932F
:100FB0007400809375008093760065E081E490E092
:100FC0007AD66CE170E082E06CD68A836DE170E0E5
:100FD00082E067D6898389819A81019621F480E431
:100FE00093E289839A8389819A818B839C83E0E64B
:100FF000F0E082838C8183838FB78E83F8949E8107
:10100000E0E5F0E08081826080839FBF818181FF85
:10101000FDCF8FB78F83F8949F8100E510E0D80152
:1010200016968C911697897F16968C931697E0E604
:10103000F0E080E885838BEB868316968C9116977B
:10104000846016968C938081816080839FBF61E06D
:1010500080E490E030D68FB78D83F8949D81F801BD
:1010600080818E7F80839FBF2796CDBFDEBFDF91BB
:10107000CF911F910F910895CF93DF931F92CDB71A
:10108000DEB79FB79983F8949981E82FF0E0E05993
:10109000FF4F60958081682360839FBF0F90DF9131
:1010A000CF910895CF93DF931F921F92CDB7DEB7F4
:1010B000863011F060E001C068E18091510081FD4F
:1010C0002AC08FB78983F8949981E0E5F0E08081A8
:1010D000826080839FBF818181FFFDCF8FB78A832C
:1010E000F8949A81A0E5B0E016968C911697897FC6
:1010F00016968C931697E0E6F0E080E885838BEBFC
:10110000868316968C911697846016968C938081B0
:10111000816080839FBF636084E490E0CCD560E40D
:1011200080E0AADF0F900F90DF91CF91089580E0CB
:1011300008953091CF232091D023822F90E0039700
:10114000B1F4311116C08091D3239091D423892B0F
:1011500091F4EDECF3E286ED91E2808791878DEBDF
:1011600098E0848795871286138681E0089580E051
:10117000089580E0089580E00895089581E08093C7
:10118000D82108951092DC211092DA2181E0809319
:10119000D8210C945E1608950C946216089529E9DE
:1011A00038E046EA50E26AED71E28CED91E2F2C07D
:1011B0000895FF920F931F93CF93DF931F92CDB7A4
:1011C000DEB79C018091D821882309F1F9018FB7FE
:1011D0008983F894F9801092D6211092D7218081CA
:1011E00091818093D6219093D7210EEB18E022E0D5
:1011F00030E046ED51E260E082E80E941F1391E08A
:1012000089278093D821FFBE8091D82189270F900C
:10121000DF91CF911F910F91FF90089580E0089585
:1012200080E008951092F2211092F0211092E621B0
:1012300088E0E7EEF1E2DF011D928A95E9F710926E
:10124000EF210C94571608950C945B16089520E135
:1012500039E04BEC50E260EF71E282EF91E29AC02C
:1012600008950F931F938091E621811118C088E0A3
:10127000E7EEF1E2AEEDB1E201900D928A95E1F771
:101280001092EF2103E519E028E030E04EED51E245
:1012900060E081E80E941F138093E62101C080E096
:1012A0001F910F9108951092E6218091EF218111F5
:1012B000D8CF08951F93CF93DF931F92CDB7DEB79A
:1012C0009FB79983F89419819091E921992341F06E
:1012D0008917A9F0EAEEF1E293E02191211102C011
:1012E0001FBF1EC0281721F09F5F9830B1F705C0BF
:1012F000983019F0973020F00CC01FBF11C092E059
:10130000E92FF0E0E951FE4D818180839F5F9730A6
:10131000B9F71092EE2181E08093EF21A2DF1FBF89
:1013200081E00F90DF91CF911F9108951F93CF938C
:10133000DF931F92CDB7DEB79FB79983F8941981D9
:101340009091E9219923B1F0891741F0AAEEB1E219
:10135000E3E09D91992349F0981303C01FBF81E0FA
:1013600014C0EF5FE830A9F702C0E83021F41FBFD6
:1013700080E00BC0E2E0F0E0E951FE4D808381E0C7
:101380008093EF216EDF1FBF81E00F90DF91CF913F
:101390001F910895CF93DF93DC01EA019091CD2353
:1013A00099230CF068C0907609F045C08091CE2357
:1013B000863009F040C076D1DC011A962C911A973C
:1013C000213209F077C02091D02330E0213231055D
:1013D000B1F49C01275F3F4F2093D5233093D62350
:1013E000EDECF3E219968C912681378190E0281775
:1013F000390708F4C9018287938781E068C0FC013E
:10140000478550E04217530709F056C0C093D523D3
:10141000D093D623EDECF3E226813781DC015096A0
:101420008D919C9151972817390708F4C90182873B
:10143000938781E04CC0903209F040C08091CE2368
:10144000823039F0833071F08130D1F5F90119958E
:101450003EC0EDECF3E2A087B18781E090E08287A7
:10146000938735C0EDECF3E26087718781E090E00F
:10147000828793872CC09076903221F58091CE237D
:101480008A3039F08B3051F08930F1F4F901199537
:101490001EC08091D0238C9381E019C08091D3230A
:1014A0009091D423892B91F48091CF23DB018C93ED
:1014B00081E00DC080E00BC080E009C080E007C083
:1014C00080E005C080E003C080E001C080E0DF91E3
:1014D000CF910895E091F821F091F9210190F081E8
:1014E000E02D228133812E0F3F1FFC014081E40F4C
:1014F000F11DE217F307A0F481818430A1F0861377
:1015000006C014C081818430A1F08617A9F08081C3
:10151000E80FF11DE217F307A8F380E090E00895CB
:1015200080E090E0089580E090E008958E2F9F2F56
:10153000089580E090E008958E2F9F2F0895809168
:10154000CF238F7795C708959091FA21992381F140
:10155000E091F821F091F9210190F081E02D948142
:10156000891740F5E093F621F093F721228133812A
:101570002E0F3F1FE217F307F8F49181943061F4C6
:101580009281891309C09381961306C0E093F621D6
:10159000F093F72181E008959081E90FF11DE217A2
:1015A000F30758F3E093F621F093F72180E00895D4
:1015B00080E0089580E0089580E00895EF92FF9222
:1015C0001F93CF93DF93C82F60E0BEDF182F8823CF
:1015D00081F1A091F821B091F921EC2FF0E0EE0F0C
:1015E000FF1F12968D919C911397E80FF91FE080D1
:1015F000F180D7011696ED91FC9117971995682FF8
:101600008C2FA2DF182F8823A1F0C091F621D09152
:10161000F72165E0CE015EDFEC01892B21F08A81A4
:101620000E943814F6CFD7011296ED91FC911397D2
:101630001995812FDF91CF911F91FF90EF90089521
:101640001F93CF93DF93182F7FDF882339F1C09149
:10165000F621D091F72165E0CE013CDFEC01892B2A
:1016600041F04C815D816B818A810FD78111F3CF6D
:1016700015C0A091F821B091F921E12FF0E0EE0F13
:10168000FF1F12968D919C911397E80FF91F0190FF
:10169000F081E02D0190F081E02D1995DF91CF913F
:1016A0001F9108958091F6219091F721089555C6D4
:1016B0000895CF938091FA218823C1F0E091F82119
:1016C000F091F9210190F081E02D8481882371F05F
:1016D000C0E08C2F73DFCF5FE091F821F091F9210A
:1016E0000190F081E02D8481C81798F31092FA21BF
:1016F0008091FE2181FD0E9456161092FE211092CB
:10170000FF21CF910895CF938091FA21882349F149
:10171000A091F821B091F921ED91FC91119784816C
:101720008823F9F0C0E0EC2FF0E0EE0FFF1F1296D7
:101730008D919C911397E80FF91F0190F081E02D96
:101740000084F185E02D309709F01995CF5FA091C5
:10175000F821B091F921ED91FC9111978481C8177E
:1017600010F3CF9108950F931F93CF93DF93EDEC78
:10177000F3E21286138614861586168617868081F4
:1017800088230CF07EC22091D3233091D4232115DD
:10179000310509F07BC26DC28F7109F0A0C0909134
:1017A000CE23963079F0983009F48FC0911197C00C
:1017B0002230310509F019C262E070E08EEF91E24B
:1017C0005DD669C28091CF239091D023292F3327F2
:1017D00022303105A9F020F42130310541F0C7C194
:1017E00023303105D9F12F30310551F1C0C180913D
:1017F000282090912920DC016C9170E03FD656C0E2
:10180000E0912820F09129202189821708F0EDC16C
:101810009927880F991F880F991FE0912A20F0912E
:101820002B20E80FF91F80819181FC016281738177
:1018300025D6E091D523F091D62382E0818336C06E
:1018400080912C2090912D20009709F4CEC1DC01CD
:1018500012966D917C91139711D628C099278130EB
:10186000910571F038F0029709F08AC1E4E5F1E2E0
:1018700031E209C064E070E080E891E2FFD516C073
:10188000E6E7F1E239E0A2E1B1E220E0819190E007
:101890008D939D932F5F2317C8F3632F660F6E5FA1
:1018A0006093102170E080E191E2E8D5EDECF3E285
:1018B00086819781228533858217930708F0EBC1D3
:1018C0008093D7239093D823E6C12130310509F0C6
:1018D0008CC161E070E08AEF91E2D0D5DCC181304B
:1018E000E1F59091CE239A30C1F52130310509F010
:1018F0004CC18091FA21882309F447C1C091D123BA
:10190000D091D2230091F8211091F921D801ED91C5
:10191000FC918481C81708F038C160E08C2F14DE78
:10192000882309F42DC1CE019927880F991FD8016A
:101930001296ED91FC911397E80FF91F0190F08139
:10194000E02D86819781FC0119958093FC2161E04F
:1019500070E08CEF91E292D59EC1823009F010C107
:101960008091CE23811105C12230310509F03DC19E
:101970008091D12312D690E08093F4219093F521A9
:1019800062E070E084EF91E279D585C18F7109F052
:101990009FC09091CE23933091F118F49130A9F02B
:1019A00097C0953021F0993009F443C091C08091DF
:1019B000D3239091D423892B09F017C18FE99AE0A2
:1019C0008093D9239093DA2366C18091D323909199
:1019D000D423892B09F009C18091CF239091D02382
:1019E000019709F002C18091FE219091FF218D7F26
:1019F0008093FE219093FF210E9456164CC1809146
:101A0000D3239091D423892B09F0EFC08091CF2369
:101A10009091D023019709F0AEC08091FE21909162
:101A2000FF2182608093FE219093FF210E94551632
:101A300032C18091D3239091D423892B09F0D5C052
:101A40001AD5882309F49CC02091CF233091D0234C
:101A50003327E0912820F0912920818990E0821796
:101A6000930708F48DC025DE8091CF239091D02379
:101A70008093FA21882309F40EC199278150904C54
:101A8000880F991F880F991FE0912A20F0912B2031
:101A9000E80FF91FE093F821F093F9210190F0810C
:101AA000E02D8481882309F4F6C0C0E060E08C2F2B
:101AB000C7DD882309F464C0CF5FE091F821F0917D
:101AC000F9210190F081E02D8481C81778F3E3C0FB
:101AD0008130E9F49091CE239B30C9F48091D323D7
:101AE0009091D423892B09F050C08091FA2188234A
:101AF00009F44BC0EDECF3E2C481D2818C2F5EDDA2
:101B0000882309F43DC06D2F8C2F9ADD37C08230B9
:101B1000B9F58091CE23813019F0833099F02DC032
:101B20008091D3239091D423892B09F05EC08091BA
:101B3000CF239091D023892B09F057C08091D123D6
:101B400047D51CC08091D3239091D423892B09F0D1
:101B50004CC08091CF239091D023892B09F045C0B0
:101B6000CDECD3E28C8135D68C819ED607C080E047
:101B700005C080E003C080E001C080E081118CC01E
:101B80008091CD238F71813081F58091FA21882356
:101B900009F471C00091D1231091D223C091F82192
:101BA000D091F921E881F9818481081708F065C096
:101BB00060E0802FC9DC8823C1F0F801FF27CF0146
:101BC000880F991FEA81FB81E80FF91FC081D1813D
:101BD000EE81FF811995682F802FB6DC882329F0CC
:101BE000EC81FD811995811157C08091CD238F71B2
:101BF000823009F044C08091FA218823B1F1A0918C
:101C0000F821B091F921ED91FC91119784818823FD
:101C100071F1C0E0EC2FF0E0EE0FFF1F12968D91F6
:101C20009C911397E80FF91F00811181D801169636
:101C3000ED91FC9117971995682F8C2F85DC8823DF
:101C400059F1D8011496ED91FC91159719958111D0
:101C500023C0CF5FA091F821B091F921ED91FC91C3
:101C600011979481C917B0F217C080E015C080E0C9
:101C700013C080E011C080E00FC080E00DC080E0A4
:101C80000BC0982F907609F07BCF80CE982F90765E
:101C900009F076CF81CD81E0DF91CF911F910F9137
:101CA00008954091CA01E62FF72F8093CA018491CD
:101CB0004093CA0108951BBEFC0128ED24BF608338
:101CC0000895CF93DF931F921F92CDB7DEB7811196
:101CD00026C09091C0239923F9F09091C8239111C7
:101CE00001C0FFCF9FB79A83F8942A81E7ECF3E213
:101CF0009181915091832FBF0FC09091C8239F3F36
:101D000009F4FFCF9FB79983F8942981E7ECF3E2B8
:101D100091819F5F91832FBF8093C02305C09091D5
:101D2000C023992351F3F8CF0F900F90DF91CF91FB
:101D300008950F93E8ECF4E080818F7D80838081AB
:101D40008F7D8083E4E7F3E202E00593109276232F
:101D50001092772300E2069300E40693ECE6F3E2A8
:101D600000E40693EDECF3E21486158616861786DA
:101D700012861386109255230F9108950F9385E0D4
:101D800080935523E5E7F3E204E00593EDE6F3E203
:101D900004E005930F9108950F9383E080935523FA
:101DA0001092762310927723E4E7F3E202E00693A1
:101DB0000F910895E091D923F091DA23309709F03B
:101DC000199508950F93CF93DF9380915523833016
:101DD00019F4F0DFAEDF5EC0809151239091522361
:101DE000C091D723D091D823C81BD90B71F520916E
:101DF000532330915423820F931F80935323909346
:101E000054232091D3233091D4238217930721F0B8
:101E100080910022882341F084E080935523ECE6F2
:101E2000F3E202E0069336C0E091DB23F091DC237D
:101E3000309799F01995882381F0109251231092D0
:101E40005223C091D723D091D823C830D10528F090
:101E500010920022C8E0D0E003C081E0809300220D
:101E6000E8E5F3E2C68FD78F8091512390915223FA
:101E70002091D5233091D623280F391F20A331A3D9
:101E8000C80FD91FC0935123D0935223E4E7F3E244
:101E900002E00693DF91CF910F910895FC018181BB
:101EA000E82FE7708E2F90E0FC013197E730F105C5
:101EB000D0F48827E95FFE4F8F4F27C780E190E07D
:101EC000089580E290E0089580E490E0089580E82D
:101ED00090E0089580E091E0089580E092E0089518
:101EE0008FEF93E0089588E090E00895282F2F70F9
:101EF00030E0220F331F082E000C990B8827990F12
:101F0000881F9927820F931F02979C01220F331F6E
:101F1000220F331F220F331F820F931F8F5F9C4DA1
:101F200008950F93CF938091CC0480FF64C081E02B
:101F30008093CC04ECE6F3E200E80693E4E7F3E2F6
:101F400000E806938093CA04ECE6F3E200E106930E
:101F500080915523882329F08350823008F42ADFAA
:101F6000E8DE80916E2390916F23089709F045C0B9
:101F700088E0E9E4F3E2ADECB3E201900D928A95DA
:101F8000E1F7E8ECF4E08081806280838081806208
:101F90008083E9DBC82F811103C0F0DEC1E02EC0D1
:101FA0008091CD2388236CF41092532310925423F4
:101FB000109251231092522382E08093552302DF26
:101FC0001DC08091D3239091D423892B11F4E4DE9A
:101FD00015C0109253231092542310925123109243
:101FE000522381E080935523ECE6F3E202E006936E
:101FF00000E2069303C0C0E001C0C1E08C2FCF9186
:102000000F9108958F929F92AF92BF92DF92EF92BD
:10201000FF920F931F93CF93DF93D82E67DF8C012E
:10202000CD2DCF70D0E0CE01880F991FCD2D0D2C76
:10203000000CDD0BCC27DD0FCC1FDD27C80FD91F0F
:10204000CE01880F991F880F991F880F991F9C0137
:1020500024593C4D7901C90121DF4C01DD200CF0F0
:1020600079C0FE01EE0FFF1FEE0FFF1FEE0FFF1FE7
:10207000E85AFC4D228D338DD80115968D919C9197
:102080001697820F931F15968D939C931697139610
:102090002D913C9114978217930709F445C0281B92
:1020A000390B2115B4E03B0738F02FEF33E0C901BD
:1020B000B40117D6281B390BF801808181FF09C0B4
:1020C000C901B4010ED641E0892B09F040E0842F0C
:1020D00001C080E0D8019C9180FB91F99C93FE01A6
:1020E000EE0FFF1FEE0FFF1FEE0FFF1FE85AFC4D14
:1020F000128E138E268B378B11962D913C91129751
:1021000015968D919C911697820F931FCC0FDD1F12
:10211000CC0FDD1FCC0FDD1FC059DC4D88839983A8
:10212000F70102E00693E0C0D8018C9181FFC9C09D
:102130008D7F8C93CC0FDD1FCC0FDD1FCC0FDD1FEF
:10214000C85ADC4D1A8E1B8E1E8A1F8AF70102E0C8
:102150000693CAC0FE01EE0FFF1FEE0FFF1FEE0F2A
:10216000FF1FE85AFC4DA688B788D8018C9182FFE2
:1021700019C01196ED91FC91129715962D913C91F5
:10218000169713968D919C911497B401AAD5B0E43B
:10219000DB9EB00111246F537E4DAC01CF01820F45
:1021A000931FBBD5F801258136812A0D3B1D258360
:1021B0003683838194818217930768F4858396839D
:1021C000CC0FDD1FCC0FDD1FCC0FDD1FC85ADC4D3F
:1021D0008A8D9B8D76C0FE01EE0FFF1FEE0FFF1F55
:1021E000EE0FFF1FE85AFC4D428D538DA416B50625
:1021F00009F067C02817390709F463C0AC01421B16
:10220000530B9A01211554E0350740F02FEF33E0CE
:10221000C901B40166D5281B390B05C0C901B40139
:1022200060D5281B390BFE01EE0FFF1FEE0FFF1FBD
:10223000EE0FFF1FE85AFC4D168A178A281539053C
:1022400000F5D8018C9184608C93B0E4DB9EC001D2
:1022500011248F539E4DFE01EE0FFF1FEE0FFF1F47
:10226000EE0FFF1FE059FC4D80839183CC0FDD1FE3
:10227000CC0FDD1FCC0FDD1FC85ADC4D8A8E9B8E24
:102280001CC0F8014181528185819681840F951F80
:10229000FE01EE0FFF1FEE0FFF1FEE0FFF1FE059B5
:1022A000FC4D80839183CC0FDD1FCC0FDD1FCC0F45
:1022B000DD1FC85ADC4D2A8F3B8FF70102E00693E1
:1022C00013C0D8018C9180FF0FC08E7F8C9317961E
:1022D000ED91FC911897309739F015966D917C919E
:1022E00016974D2D80E01995DF91CF911F910F9199
:1022F000FF90EF90DF90BF90AF909F908F900895E8
:102300001F93CF93DF931F92CDB7DEB78FB789832B
:10231000F894198181E0D5DCEAECF4E080E4808374
:1023200080E28083E1ECF4E0808181608083A9EC2D
:10233000B4E08C9182608C93E8ECF4E0808180645E
:1023400080838C9181608C938081806880831FBFA3
:102350000F90DF91CF911F9108950F931F93CF930B
:10236000DF931F921F92CDB7DEB700E610E0F801B1
:10237000108280E30E945208E0ECF4E080818064E7
:10238000808381E0F80180838FB78A83F8941A8173
:1023900080E090E0FC01EE0FFF1FEE0FFF1FEE0F3D
:1023A000FF1FE85AFC4D158A01968A30910591F776
:1023B00080E090E0FC01EE0FFF1FEE0FFF1FEE0F1D
:1023C000FF1FE80FF91FEF5FFC4D20812E7F208358
:1023D00001968830910571F76AE170E082E061DC76
:1023E0008F3F19F08093FA0403C08FE18093FA04C1
:1023F0006BE170E082E055DC8F3F19F08093FB04C5
:1024000003C08FE18093FB04E0ECF4E08081846002
:1024100080838081806880838081806180838CE676
:1024200093E2868397838081806280838FEF80939D
:10243000C504E8ECF4E08081816080831092C023C1
:102440008091CC238F3F09F4FFCF8FB78983F89415
:102450009981E7ECF3E285818F5F85839FBF50DF31
:102460001FBF0F900F90DF91CF911F910F91089593
:102470008093C30408958091C3040895EDECF3E2C2
:1024800080879187628773870895282F2F7030E0A7
:10249000220F331F082E000C990B8827990F881FD5
:1024A0009927820F931FFC01EE0FFF1FEE0FFF1FF6
:1024B000EE0FFF1FE85AFC4D2589207C09F069C00A
:1024C0006370613011F018F404C060EC03C060E880
:1024D00001C060E440385105E9F050F44032510544
:1024E000A9F040345105A1F040315105D9F40CC098
:1024F000411522E0520791F04F3F23E0520781F04F
:102500004115514079F408C021E00DC022E00BC014
:1025100023E009C024E007C025E005C026E003C091
:1025200027E001C020E0FC01EE0FFF1FEE0FFF1FB0
:10253000EE0FFF1FE85AFC4D158A36E0348B262B30
:10254000258BFC01EE0FFF1FEE0FFF1FEE0FFF1F8D
:10255000E85AFC4D2589207C203C69F4FC01EE0FF3
:10256000FF1FEE0FFF1FEE0FFF1FE85AFC4D2589DE
:102570002770273081F0880F991F880F991F880FC7
:10258000991FFC01E85AFC4D85898062858B81E0AA
:10259000089580E0089581E00895E82FEF70F0E05D
:1025A000EE0FFF1F082E000C990B8827990F881F2C
:1025B0009927E80FF91FEE0FFF1FEE0FFF1FEE0F19
:1025C000FF1FE85AFC4D858982FB882780F9089512
:1025D0000F93282F2F7030E0A901440F551F282F8B
:1025E000082E000C330B2227330F221F3327240F12
:1025F000351FA901440F551F440F551F440F551F88
:10260000FA01E459FC4D01E00693FA01E85AFC4D49
:10261000958992FF11C0FA01E85AFC4D95899B7F7C
:10262000958B64DCFC01808180FF06C08E7F8083F7
:102630000780F085E02D199581E00F9108956F9244
:102640007F928F929F92AF92BF92CF92DF92EF9242
:10265000FF920F931F93CF93DF931F92CDB7DEB7F7
:10266000782E662E4A01590141DC6C01272D872DF9
:102670008F70E82EF12CC701880F991FE72C072CCB
:10268000000CFF08EE24FF0CEE1CFF24E80EF91EE0
:10269000F701EE0FFF1FEE0FFF1FEE0FFF1FE85AAF
:1026A000FC4D8589807C09F481C0F701EE0FFF1F86
:1026B000EE0FFF1FEE0FFF1FE85AFC4D8589807C4F
:1026C000803C61F0F701EE0FFF1FEE0FFF1FEE0FD2
:1026D000FF1FE85AFC4D858982FD6AC08FB7898348
:1026E000F8948981F601908190FF03C08FBF80E04C
:1026F00060C0F6019081916090838FBF8182928249
:10270000A382B4821582168207831087611006C0E7
:1027100091E0A114B10419F090E001C091E0F6013C
:10272000808190FB81F98B7F8083222364F4F70101
:10273000EE0FFF1FEE0FFF1FEE0FFF1FE85AFC4DBD
:10274000128E138E2FC0F701EE0FFF1FEE0FFF1F2B
:10275000EE0FFF1FE85AFC4D8589807C803CA9F470
:10276000C701880F991F880F991F880F991F8459D7
:102770009C4D94DBBC01C501B4D2892B31F0F6012C
:1027800080818E7F808380E014C0F701EE0FFF1FF1
:10279000EE0FFF1FEE0FFF1FE85AFC4D168A178A37
:1027A000128E138E872D2EDC81E003C080E001C0E5
:1027B00080E00F90DF91CF911F910F91FF90EF90EC
:1027C000DF90CF90BF90AF909F908F907F906F9051
:1027D0000895FF920F931F93CF93DF93182FC82F65
:1027E000CF70D0E0CE01880F991FC12F012E000CB1
:1027F000DD0BCC27DD0FCC1FDD27C80FD91F812FA4
:1028000075DBDC01FE01EE0FFF1FEE0FFF1FEE0F69
:10281000FF1FE459FC4D02E005938C9180FF22C01C
:102820008E7F8C931796ED91FC9118973097D1F08D
:1028300011235CF4CC0FDD1FCC0FDD1FCC0FDD1F8F
:10284000C85ADC4D6A8D7B8D0AC0CC0FDD1FCC0FC2
:10285000DD1FCC0FDD1FC85ADC4D6E897F89412FEB
:1028600081E01995DF91CF911F910F91FF9008950D
:10287000CF93C82FAEDFEC2FEF70F0E0EE0FFF1F0D
:102880008C2FCC0F990B8827990F881F9927E80F59
:10289000F91FEE0FFF1FEE0FFF1FEE0FFF1FE85A8D
:1028A000FC4D158ACF910895E82FEF70F0E0EE0F00
:1028B000FF1F282F082E000C330B2227330F221F57
:1028C0003327E20FF31FEE0FFF1FEE0FFF1FEE0F78
:1028D000FF1FE85AFC4D95899460958B7ADF81E063
:1028E00008951F920F920FB60F9211240BB60F92FC
:1028F0000F932F933F934F935F936F937F938F9398
:102900009F93AF93BF93CF93EF93FF938091CB04AB
:1029100088233CF480E88093CA040E94830BB0D1E2
:1029200089C08091CB0482FF20C084E08093CA04D8
:102930008091742386FF7EC08091CC0481FD7AC093
:10294000F0DA811177C080915523813011F424DAB7
:1029500071C0843009F06EC0E5E7F3E204E005934E
:10296000EDE6F3E204E0059365C08091CB0481FFBE
:102970005CC082E08093CA0480916C2386FF5AC0B9
:102980008091CC0481FD56C0CCDA811153C0809176
:102990005523823041F484E080935523ECE6F3E242
:1029A00002E0069347C0833009F044C0E5E7F3E254
:1029B00004E00593EDE6F3E204E005933BC080E11B
:1029C0008093CA04C1E08C2F04DF8C2F806801DF64
:1029D000CF5FC530C1F70E94590B1092C304E8E5E0
:1029E000F3E2158A96E0948B80E4858B158E948FA4
:1029F000858F89E493E2808F918F9BD91BC0809152
:102A0000CB0486FF07C080E48093CA0480E059D9D4
:102A100035D110C08091CB0485FF0CC080E280933B
:102A2000CA0481E04ED92BD105C08091CB0484FD2E
:102A3000C6CFE5CFFF91EF91CF91BF91AF919F911D
:102A40008F917F916F915F914F913F912F910F9156
:102A50000F900BBE0F900FBE0F901F9018951F92F6
:102A60000F920FB60F9211240BB60F920F931F9374
:102A70002F933F934F935F936F937F938F939F9386
:102A8000AF93BF93CF93DF93EF93FF938091CC04E9
:102A900081FD03C046DA8111C3C082E08093CC047B
:102AA0008091C5048195880FECE6F3E2E81BF109FB
:102AB000208131812C5633423695279536952795BE
:102AC00036952795822F869520FD02C090E001C0A3
:102AD00090E8890FE82FEF70F0E0EE0FFF1F282F2E
:102AE000082E000C330B2227330F221F3327E20F4F
:102AF000F31FDF01AA0FBB1FAA0FBB1FAA0FBB1F2B
:102B0000A85ABC4D54969C9195FF8AC0EE0FFF1FAA
:102B1000EE0FFF1FEE0FFF1FE459FC4D00E206937E
:102B2000811179C080915523843019F443D901D99A
:102B300077C000916E2310916F238091D7239091DD
:102B4000D823C0915123D091522398012C0F3D1FBF
:102B50008217930718F48C010C1B1D0B8091D52351
:102B60009091D623A80169E473E28C0F9D1FD5D004
:102B7000C00FD11FC0935123D093522308301105A9
:102B800069F480915323909154238C0F9D1F2091C1
:102B9000D3233091D4238217930780F0EDECF3E236
:102BA000C287D3870684F785E02D309729F01995E1
:102BB000811102C0E3D834C0EFD832C08091D7234E
:102BC0009091D823C817D907F9F4E091DB23F0914D
:102BD000DC23309711F4D2D823C01995811102C09B
:102BE000CDD81EC02091532330915423809151237E
:102BF00090915223820F931F8093532390935423D9
:102C00001092512310925223ECE6F3E202E0069375
:102C100000E2069305C0803811F4D4D801C0F2D97F
:102C2000FF91EF91DF91CF91BF91AF919F918F91E4
:102C30007F916F915F914F913F912F911F910F91D4
:102C40000F900BBE0F900FBE0F901F90189587E04E
:102C50008093A2007894E7ECF3E210821182128252
:102C60001382148281E085830E94C5070E94B70702
:102C70000E94570B81E00E94B907FFCF0895089585
:102C80008091C323882381F00E94BD078091C223D5
:102C9000882351F00E94BB078091C123882321F033
:102CA0000E94BF070C94C30708950895089581E01A
:102CB0008093C32308951092C323089581E08093E5
:102CC000C22308951092C223089581E08093C12306
:102CD00008951092C1230895FC0180810C94C107CE
:102CE0000895AA1BBB1B51E107C0AA1FBB1FA61753
:102CF000B70710F0A61BB70B881F991F5A95A9F7A5
:102D000080959095BC01CD010895EE0FFF1F881F9F
:102D10008BBF0790F691E02D1994FB01DC0102C0F6
:102D200001900D9241505040D8F70895F894FFCF8C
:102D30000600FF0901A10195087501190129088103
:102D40000295087501190129089102C06B018601DD
:102D5000890130010000808094202E20000038205E
:102D600032200621C1201C2009025B00030100A0C3
:102D700032090400000103000000092111010001D3
:102D8000223B00070581030800020904010001033A
:102D9000000000092111010001221B000705820328
:102DA00008000409040200020300000009211101C7
:102DB0000001221C00070584030800040705030323
:102DC000080004001201000200000008EB03332198
:102DD00000010102000105010904A101A100050192
:102DE00009300931150026FF00750895028102C0DF
:102DF000C0C208CC08CF089708000005010906A149
:102E000001050719E029E7150025017501950881DD
:102E1000028101190029651500256575089506814F
:102E20000005081901290515002501750195059171
:102E30000295039101C01209240927090E09000017
:102E4000000300000000000000000000000000007F
:102E50000000000000000000000000000000000072
:102E60000000000000000000000000000000000062
:102E70000000000000000000000000000000000052
:102E800000000000436F6D706F73697465204849DE
:102E900044204B6579626F617264202B204A6F7900
:102EA000737469636B0041544D454C204153460097
:102EB00004030904010204081020408000172E4575
:082EC0005C748BA2B9D0E7FF9E
:00000001FF
