:1000000004C1000023C1000021C100001FC1000085
:100010001DC100001BC1000019C1000017C1000074
:1000200015C1000013C1000011C100000FC1000084
:100030000DC100000BC1000009C1000007C1000094
:1000400005C1000003C1000001C10000FFC00000A5
:10005000FDC00000FBC00000F9C00000F7C00000B8
:10006000F5C00000F3C00000F1C00000EFC00000C8
:10007000EDC00000EBC00000E9C00000E7C00000D8
:10008000E5C00000E3C00000E1C00000DFC00000E8
:10009000DDC00000DBC00000D9C00000D7C00000F8
:1000A000D5C00000D3C00000D1C00000CFC0000008
:1000B000CDC00000CBC00000C9C00000C7C0000018
:1000C000C5C00000C3C00000C1C00000BFC0000028
:1000D000BDC00000BBC00000B9C00000B7C0000038
:1000E000B5C00000B3C00000B1C00000AFC0000048
:1000F000ADC00000ABC00000A9C00000A7C0000058
:10010000A5C00000A3C00000A1C000009FC0000067
:100110009DC000009BC0000099C0000097C0000077
:1001200095C0000093C0000091C000008FC0000087
:100130008DC000008BC0000089C0000087C0000097
:1001400085C0000083C0000081C000007FC00000A7
:100150007DC000007BC0000079C0000077C00000B7
:1001600075C0000073C0000071C000006FC00000C7
:100170006DC000006BC0000069C0000067C00000D7
:1001800065C0000063C0000061C000005FC00000E7
:100190005DC000005BC0000059C0000057C00000F7
:1001A00055C0000053C0000051C000004FC0000007
:1001B0004DC000004BC0000049C0000047C0000017
:1001C00045C0000043C0000041C000003FC0000027
:1001D0003DC000003BC0000039C0000037C0000037
:1001E00035C0000033C0000031C000002FC0000047
:1001F0002DC000000C94CB0B0C94860C9307960733
:1002000099079C079F07A207A50711241FBECFEFE0
:10021000CDBFDFE5DEBF00E00CBF11E2A0E0B0E241
:10022000EEE9FBE100E00BBF02C007900D92AA339C
:10023000B107D9F722E2AAE3B1E201C01D92A936C3
:10024000B207E1F70E947E0D0C94CD0DD9CE8095BA
:100250008093040608958FEF80937000809371005F
:100260008093720080937300809374008093750074
:10027000809376000895CF93DF931F92CDB7DEB7BA
:100280009FB79983F8949981E82FF0E0E059FF4FE8
:1002900060958081682360839FBF0F90DF91CF912D
:1002A0000895CF93DF931F92CDB7DEB7863011F05C
:1002B00060E001C068E18091510081FD0DC08FB701
:1002C0008983F8949981E0E5F0E080818260808301
:1002D0009FBF818181FFFDCF636084E490E020D5E2
:1002E00060E480E0C8DF0F90DF91CF91089580E057
:1002F000089530915B2220915C22822F90E0039739
:10030000B1F4311116C080915F2290916022892B47
:1003100091F4E9E5F2E28AE391E2808791878DE941
:1003200091E0848795871286138681E0089580E0A6
:10033000089580E0089580E00895089510923E2188
:1003400010923C2181E080933A210C94A10D0895F4
:100350000C94A50D089529E731E04CE550E26CE3DB
:1003600071E28EE391E24BC0089580E008953091F0
:100370005B2220915C22822F90E00297B9F4311128
:1003800017C080915F2290916022019799F4E9E56E
:10039000F2E28AE491E2808791878BEF91E0848793
:1003A000958781E090E082879387089580E00895A3
:1003B00080E0089580E0089510924E2110924C2123
:1003C0001092402188E0E1E4F1E2DF011D928A957C
:1003D000E9F7109249210C949A0D08950C949E0D02
:1003E000089527EB31E041E850E26CE471E28EE4DD
:1003F00091E205C0089580914A2129CF0895CF93B5
:10040000DF93DC01EA019091592299230CF068C036
:10041000907609F045C080915A22863009F040C09C
:1004200076D1DC011A962C911A97213209F077C007
:1004300020915C2230E021323105B1F49C01275F2C
:100440003F4F2093612230936222E9E5F2E2199650
:100450008C912681378190E02817390708F4C9016B
:100460008287938781E068C0FC01478550E042178E
:10047000530709F056C0C0936122D0936222E9E588
:10048000F2E226813781DC0150968D919C91519743
:100490002817390708F4C9018287938781E04CC087
:1004A000903209F040C080915A22823039F0833076
:1004B00071F08130D1F5F90119953EC0E9E5F2E21C
:1004C000A087B18781E090E08287938735C0E9E516
:1004D000F2E26087718781E090E0828793872CC089
:1004E0009076903221F580915A228A3039F08B3003
:1004F00051F08930F1F4F90119951EC080915C2208
:100500008C9381E019C080915F2290916022892BA9
:1005100091F480915B22DB018C9381E00DC080E03F
:100520000BC080E009C080E007C080E005C080E02B
:1005300003C080E001C080E0DF91CF910895E09199
:100540005421F09155210190F081E02D22813381D9
:100550002E0F3F1FFC014081E40FF11DE217F3074E
:10056000A0F481818430A1F0861306C014C081817B
:100570008430A1F08617A9F08081E80FF11DE21701
:10058000F307A8F380E090E0089580E090E00895FC
:1005900080E090E008958E2F9F2F089580E090E0F6
:1005A00008958E2F9F2F089580915B228F7784C7A7
:1005B000089590915621992381F1E0915421F09171
:1005C00055210190F081E02D9481891740F5E09349
:1005D0005221F0935321228133812E0F3F1FE217C6
:1005E000F307F8F49181943061F49281891309C082
:1005F0009381961306C0E0935221F093532181E03A
:1006000008959081E90FF11DE217F30758F3E09385
:100610005221F093532180E0089580E0089580E016
:10062000089580E00895EF92FF921F93CF93DF9398
:10063000C82F60E0BEDF182F882381F1A0915421DC
:10064000B0915521EC2FF0E0EE0FFF1F12968D9127
:100650009C911397E80FF91FE080F180D70116965F
:10066000ED91FC9117971995682F8C2FA2DF182F09
:100670008823A1F0C0915221D091532165E0CE0191
:100680005EDFEC01892B21F08A810E94920BF6CF6C
:10069000D7011296ED91FC9113971995812FDF9157
:1006A000CF911F91FF90EF9008951F93CF93DF9309
:1006B000182F7FDF882339F1C0915221D091532127
:1006C00065E0CE013CDFEC01892B41F04C815D817E
:1006D0006B818A81FED68111F3CF15C0A091542180
:1006E000B0915521E12FF0E0EE0FFF1F12968D9192
:1006F0009C911397E80FF91F0190F081E02D019074
:10070000F081E02D1995DF91CF911F91089580918F
:10071000522190915321089555C60895CF93809109
:1007200056218823C1F0E0915421F0915521019088
:10073000F081E02D8481882371F0C0E08C2F73DF7D
:10074000CF5FE0915421F09155210190F081E02D8F
:100750008481C81798F31092562180915A2181FD07
:100760000E94990D10925A2110925B21CF91089509
:10077000CF9380915621882349F1A0915421B091C3
:100780005521ED91FC91119784818823F9F0C0E007
:10079000EC2FF0E0EE0FFF1F12968D919C911397B6
:1007A000E80FF91F0190F081E02D0084F185E02D24
:1007B000309709F01995CF5FA0915421B091552140
:1007C000ED91FC9111978481C81710F3CF91089592
:1007D0000F931F93CF93DF93E9E5F2E2128613861E
:1007E0001486158616861786808188230CF07EC2B3
:1007F00020915F22309160222115310509F07BC2E2
:100800006DC28F7109F0A0C090915A22963079F094
:10081000983009F48FC0911197C02230310509F04A
:1008200019C262E070E08AE591E24CD669C280911B
:100830005B2290915C22292F332722303105A9F0C9
:1008400020F42130310541F0C7C123303105D9F101
:100850002F30310551F1C0C18091002090910120CD
:10086000DC016C9170E02ED656C0E0910020F09132
:1008700001202189821708F0EDC19927880F991F5F
:10088000880F991FE0910220F0910320E80FF91FD3
:1008900080819181FC016281738114D6E091612293
:1008A000F091622282E0818336C080910420909191
:1008B0000520009709F4CEC1DC0112966D917C9160
:1008C000139700D628C099278130910571F038F030
:1008D000029709F08AC1EAE0F1E231E209C064E07E
:1008E00070E086E391E2EED516C0ECE2F1E239E089
:1008F000A8ECB0E220E0819190E08D939D932F5F72
:100900002317C8F3632F660F6E5F6093C62070E0F5
:1009100086EC90E2D7D5E9E5F2E2868197812285DF
:1009200033858217930708F0EBC18093632290937D
:100930006422E6C12130310509F08CC161E070E02C
:1009400086E591E2BFD5DCC18130E1F590915A2274
:100950009A30C1F52130310509F04CC18091562102
:10096000882309F447C1C0915D22D0915E22009195
:10097000542110915521D801ED91FC918481C81723
:1009800008F038C160E08C2F14DE882309F42DC1F3
:10099000CE019927880F991FD8011296ED91FC91ED
:1009A0001397E80FF91F0190F081E02D8681978160
:1009B000FC0119958093582161E070E088E591E28F
:1009C00081D59EC1823009F010C180915A228111D7
:1009D00005C12230310509F03DC180915D2201D66B
:1009E00090E0809350219093512162E070E080E587
:1009F00091E268D585C18F7109F09FC090915A220C
:100A0000933091F118F49130A9F097C0953021F00E
:100A1000993009F443C091C080915F229091602287
:100A2000892B09F017C184ED92E0809365229093A1
:100A3000662266C180915F2290916022892B09F025
:100A400009C180915B2290915C22019709F002C15B
:100A500080915A2190915B218D7F80935A219093B0
:100A60005B210E94990D4CC180915F229091602280
:100A7000892B09F0EFC080915B2290915C22019755
:100A800009F0AEC080915A2190915B2182608093E1
:100A90005A2190935B210E94980D32C180915F2270
:100AA00090916022892B09F0D5C009D5882309F4DB
:100AB0009CC020915B2230915C223327E091002082
:100AC000F0910120818990E08217930708F48DC08E
:100AD00025DE80915B2290915C22809356218823B1
:100AE00009F40EC199278150904C880F991F880FE7
:100AF000991FE0910220F0910320E80FF91FE09385
:100B00005421F09355210190F081E02D84818823B8
:100B100009F4F6C0C0E060E08C2FC7DD882309F43B
:100B200064C0CF5FE0915421F09155210190F08194
:100B3000E02D8481C81778F3E3C08130E9F4909107
:100B40005A229B30C9F480915F2290916022892BB8
:100B500009F050C080915621882309F44BC0E9E583
:100B6000F2E2C481D2818C2F5EDD882309F43DC07E
:100B70006D2F8C2F9ADD37C08230B9F580915A22C3
:100B8000813019F0833099F02DC080915F229091CF
:100B90006022892B09F05EC080915B2290915C22DB
:100BA000892B09F057C080915D2236D51CC08091F9
:100BB0005F2290916022892B09F04CC080915B22CA
:100BC00090915C22892B09F045C0C9E5D2E28C8165
:100BD0005AD58C81C3D507C080E005C080E003C032
:100BE00080E001C080E081118CC0809159228F711A
:100BF000813081F580915621882309F471C00091DC
:100C00005D2210915E22C0915421D0915521E8813E
:100C1000F9818481081708F065C060E0802FC9DC85
:100C20008823C1F0F801FF27CF01880F991FEA81BF
:100C3000FB81E80FF91FC081D181EE81FF811995F9
:100C4000682F802FB6DC882329F0EC81FD8119956F
:100C5000811157C0809159228F71823009F044C0B0
:100C6000809156218823B1F1A0915421B091552152
:100C7000ED91FC9111978481882371F1C0E0EC2FF4
:100C8000F0E0EE0FFF1F12968D919C911397E80FE5
:100C9000F91F00811181D8011696ED91FC911797EB
:100CA0001995682F8C2F85DC882359F1D80114966B
:100CB000ED91FC9115971995811123C0CF5FA091FB
:100CC0005421B0915521ED91FC9111979481C91750
:100CD000B0F217C080E015C080E013C080E011C002
:100CE00080E00FC080E00DC080E00BC0982F9076B0
:100CF00009F07BCF80CE982F907609F076CF81CD0A
:100D000081E0DF91CF911F910F9108954091CA0129
:100D1000E62FF72F8093CA0184914093CA0108956A
:100D20001BBEFC0128ED24BF60830895CF93DF93A1
:100D30001F921F92CDB7DEB7811126C0909150222D
:100D40009923F9F090915422911101C0FFCF9FB7E0
:100D50009A83F8942A81E3E5F2E29181915091839C
:100D60002FBF0FC0909154229F3F09F4FFCF9FB730
:100D70009983F8942981E3E5F2E291819F5F918361
:100D80002FBF8093502205C090915022992351F398
:100D9000F8CF0F900F90DF91CF9108950F93E8EC6B
:100DA000F4E080818F7D808380818F7D8083E4E289
:100DB000F2E202E00593109226221092272200E22E
:100DC000069300E40693ECE1F2E200E40693E9E521
:100DD000F2E21486158616861786128613861092FE
:100DE0000D220F9108950F9385E080930D22E5E287
:100DF000F2E204E00593EDE1F2E204E005930F91E5
:100E000008950F9383E080930D2210922622109272
:100E10002722E4E2F2E202E006930F910895E091C6
:100E20006522F0916622309709F0199508950F9385
:100E3000CF93DF9380910D22833019F4F0DFAEDF82
:100E40005EC08091092290910A22C0916322D091C4
:100E50006422C81BD90B71F520910B2230910C2212
:100E6000820F931F80930B2290930C2220915F227C
:100E7000309160228217930721F080915C218823B2
:100E800041F084E080930D22ECE1F2E202E006936F
:100E900036C0E0916722F0916822309799F0199559
:100EA000882381F01092092210920A22C0916322B5
:100EB000D0916422C830D10528F010925C21C8E09E
:100EC000D0E003C081E080935C21E0E1F2E2C68BD8
:100ED000D78B8091092290910A2220916122309132
:100EE0006222280F391F208F318FC80FD91FC0935E
:100EF0000922D0930A22E4E2F2E202E00693DF91B3
:100F0000CF910F910895FC018181E82FE7708E2F1A
:100F100090E0FC013197E730F105D0F48827E250EA
:100F2000FF4F8F4F29C680E190E0089580E290E066
:100F3000089580E490E0089580E890E0089580E0CE
:100F400091E0089580E092E008958FEF93E0089596
:100F500088E090E00895282F2F7030E0220F331F93
:100F6000082E000C990B8827990F881F9927820F4C
:100F7000931F02979C01220F331F220F331F220F52
:100F8000331F820F931F83529E4D08950F93CF936B
:100F90008091CC0480FF64C081E08093CC04ECE1BC
:100FA000F2E200E80693E4E2F2E200E806938093BE
:100FB000CA04ECE1F2E200E1069380910D2288235D
:100FC00029F08350823008F42ADFE8DE80911E2267
:100FD00090911F22089709F045C088E0E1E0F2E215
:100FE000A9E5B2E201900D928A95E1F7E8ECF4E010
:100FF000808180628083808180628083E9DBC82F6A
:10100000811103C0F0DEC1E02EC0809159228823F7
:101010006CF410920B2210920C2210920922109262
:101020000A2282E080930D2202DF1DC080915F22A0
:1010300090916022892B11F4E4DE15C010920B22EE
:1010400010920C221092092210920A2281E08093C1
:101050000D22ECE1F2E202E0069300E2069303C007
:10106000C0E001C0C1E08C2FCF910F9108958F9205
:101070009F92AF92BF92DF92EF92FF920F931F93D6
:10108000CF93DF93D82E67DF8C01CD2DCF70D0E0CA
:10109000CE01880F991FCD2D0D2C000CDD0BCC2718
:1010A000DD0FCC1FDD27C80FD91FCE01880F991F78
:1010B000880F991F880F991F9C01245E3D4D79016F
:1010C000C90121DF4C01DD200CF079C0FE01EE0FDB
:1010D000FF1FEE0FFF1FEE0FFF1FE05FFD4D228988
:1010E0003389D80115968D919C911697820F931F85
:1010F00015968D939C93169713962D913C9114976A
:101100008217930709F445C0281B390B2115B4E059
:101110003B0738F02FEF33E0C901B40119D5281B84
:10112000390BF801808181FF09C0C901B40110D5D4
:1011300041E0892B09F040E0842F01C080E0D80114
:101140009C9180FB91F99C93FE01EE0FFF1FEE0F27
:10115000FF1FEE0FFF1FE05FFD4D128A138A2687E7
:10116000378711962D913C91129715968D919C91F0
:101170001697820F931FCC0FDD1FCC0FDD1FCC0FF6
:10118000DD1FC05EDD4D88839983F70102E0069381
:10119000E0C0D8018C9181FFC9C08D7F8C93CC0FAA
:1011A000DD1FCC0FDD1FCC0FDD1FC05FDD4D1A8AA8
:1011B0001B8A1E861F86F70102E00693CAC0FE0145
:1011C000EE0FFF1FEE0FFF1FEE0FFF1FE05FFD4D45
:1011D000A684B784D8018C9182FF19C01196ED9135
:1011E000FC91129715962D913C91169713968D911F
:1011F0009C911497B401ACD4B0E4DB9EB0011124EF
:10120000635E7E4DAC01CF01820F931FBDD4F80108
:10121000258136812A0D3B1D258336838381948168
:101220008217930768F485839683CC0FDD1FCC0F5C
:10123000DD1FCC0FDD1FC05FDD4D8A899B8976C025
:10124000FE01EE0FFF1FEE0FFF1FEE0FFF1FE05F0F
:10125000FD4D42895389A416B50609F067C02817C9
:10126000390709F463C0AC01421B530B9A012115E5
:1012700054E0350740F02FEF33E0C901B40168D4E2
:10128000281B390B05C0C901B40162D4281B390BD6
:10129000FE01EE0FFF1FEE0FFF1FEE0FFF1FE05FBF
:1012A000FD4D168617862815390500F5D8018C9155
:1012B00084608C93B0E4DB9EC0011124835E9E4D5C
:1012C000FE01EE0FFF1FEE0FFF1FEE0FFF1FE05E90
:1012D000FD4D80839183CC0FDD1FCC0FDD1FCC0F24
:1012E000DD1FC05FDD4D8A8A9B8A1CC0F8014181E9
:1012F000528185819681840F951FFE01EE0FFF1F9D
:10130000EE0FFF1FEE0FFF1FE05EFD4D8083918308
:10131000CC0FDD1FCC0FDD1FCC0FDD1FC05FDD4DFF
:101320002A8B3B8BF70102E0069313C0D8018C9106
:1013300080FF0FC08E7F8C931796ED91FC911897CC
:10134000309739F015966D917C9116974D2D80E070
:101350001995DF91CF911F910F91FF90EF90DF9042
:10136000BF90AF909F908F9008951F93CF93DF937E
:101370001F92CDB7DEB78FB78983F894198181E0CA
:10138000D5DCEAECF4E080E4808380E28083E1EC69
:10139000F4E0808181608083A9ECB4E08C9182606C
:1013A0008C93E8ECF4E08081806480838C91816090
:1013B0008C938081806880831FBF0F90DF91CF91D5
:1013C0001F9108951F93CF93DF931F921F92CDB764
:1013D000DEB780E30E945101E0ECF4E0808180649C
:1013E00080838FB78A83F8941A81E0E1F2E2158650
:1013F000158A158E15A215A615AAEDEDF1E28081CC
:101400008E7F8083E6EEF1E280818E7F8083EFEE37
:10141000F1E280818E7F8083E8EFF1E280818E7F30
:1014200080836AE170E082E071DC8F3F19F0809385
:10143000FA0403C08FE18093FA046BE170E082E06C
:1014400065DC8F3F19F08093FB0403C08FE180932C
:10145000FB04E0ECF4E0808182608083808180681E
:1014600080838081806180838CE192E28683978390
:101470008081806280838FEF8093C504E8ECF4E084
:1014800080818160808310925022809158228F3F0A
:1014900009F4FFCF8FB78983F8949981E3E5F2E2ED
:1014A00085818F5F85839FBF60DF1FBF0F900F9087
:1014B000DF91CF911F9108958093C3040895809187
:1014C000C3040895E9E5F2E2808791876287738714
:1014D0000895282F2F7030E0220F331F082E000CA4
:1014E000990B8827990F881F9927820F931FFC015A
:1014F000EE0FFF1FEE0FFF1FEE0FFF1FE05FFD4D12
:101500002585207C09F069C06370613011F018F402
:1015100004C060EC03C060E801C060E440385105DD
:10152000E9F050F440325105A9F040345105A1F0E2
:1015300040315105D9F40CC0411522E0520791F019
:101540004F3F23E0520781F04115514079F408C024
:1015500021E00DC022E00BC023E009C024E007C059
:1015600025E005C026E003C027E001C020E0FC0123
:10157000EE0FFF1FEE0FFF1FEE0FFF1FE05FFD4D91
:10158000158636E03487262B2587FC01EE0FFF1FDA
:10159000EE0FFF1FEE0FFF1FE05FFD4D2585207C46
:1015A000203C69F4FC01EE0FFF1FEE0FFF1FEE0F52
:1015B000FF1FE05FFD4D25852770273081F0880FE4
:1015C000991F880F991F880F991FFC01E05FFD4D3F
:1015D00085858062858781E0089580E0089581E0B7
:1015E0000895E82FEF70F0E0EE0FFF1F082E000CBB
:1015F000990B8827990F881F9927E80FF91FEE0F7D
:10160000FF1FEE0FFF1FEE0FFF1FE05FFD4D8585F3
:1016100082FB882780F908950F93282F2F7030E0E0
:10162000A901440F551F282F082E000C330B222729
:10163000330F221F3327240F351FA901440F551FD5
:10164000440F551F440F551FFA01E45EFD4D01E0A4
:101650000693FA01E05FFD4D958592FF11C0FA01F6
:10166000E05FFD4D95859B7F958775DCFC01808152
:1016700080FF06C08E7F80830780F085E02D19955E
:1016800081E00F910895FF920F931F93CF93DF9303
:10169000182FC82FCF70D0E0CE01880F991FC12F0F
:1016A000012E000CDD0BCC27DD0FCC1FDD27C80F72
:1016B000D91F812F50DCDC01FE01EE0FFF1FEE0F62
:1016C000FF1FEE0FFF1FE45EFD4D02E005938C91BE
:1016D00080FF22C08E7F8C931796ED91FC91189716
:1016E0003097D1F011235CF4CC0FDD1FCC0FDD1F40
:1016F000CC0FDD1FC05FDD4D6A897B890AC0CC0F2E
:10170000DD1FCC0FDD1FCC0FDD1FC05FDD4D6E85F3
:101710007F85412F81E01995DF91CF911F910F9126
:10172000FF900895CF93C82FAEDFEC2FEF70F0E05D
:10173000EE0FFF1F8C2FCC0F990B8827990F881F56
:101740009927E80FF91FEE0FFF1FEE0FFF1FEE0F97
:10175000FF1FE05FFD4D1586CF910895E82FEF70D4
:10176000F0E0EE0FFF1F282F082E000C330B22276E
:10177000330F221F3327E20FF31FEE0FFF1FEE0F71
:10178000FF1FEE0FFF1FE05FFD4D9585946095876D
:101790007ADF81E008951F920F920FB60F92112405
:1017A0000BB60F920F932F933F934F935F936F93CB
:1017B0007F938F939F93AF93BF93EF93FF9380910A
:1017C000CB0488233CF480E88093CA040E94B803C9
:1017D000A9D188C08091CB0482FF20C084E080938F
:1017E000CA048091242286FF7DC08091CC0481FDB3
:1017F00079C0CCDB811176C080910D22813011F44B
:1018000000DB70C0843009F06DC0E5E2F2E204E074
:101810000593EDE1F2E204E0059364C08091CB040E
:1018200081FF5BC082E08093CA0480911C2286FF06
:1018300059C08091CC0481FD55C0A8DB811152C0F4
:1018400080910D22823041F484E080930D22ECE1FE
:10185000F2E202E0069346C0833009F043C0E5E2BD
:10186000F2E204E00593EDE1F2E204E005933AC010
:1018700080E18093CA0481E006DF81E804DF82E032
:1018800002DF82E800DF0E948E031092C304E0E1D1
:10189000F2E2158696E0948780E48587158A948B1A
:1018A000858B81E092E2808B918B78DA1BC08091EE
:1018B000CB0486FF07C080E48093CA0480E036DA58
:1018C0002FD110C08091CB0485FF0CC080E28093A3
:1018D000CA0481E02BDA25D105C08091CB0484FDB8
:1018E000C7CFE5CFFF91EF91BF91AF919F918F91BE
:1018F0007F916F915F914F913F912F910F910F9039
:101900000BBE0F900FBE0F901F9018951F920F9255
:101910000FB60F9211240BB60F920F931F932F93B4
:101920003F934F935F936F937F938F939F93AF9367
:10193000BF93CF93DF93EF93FF938091CC0481FD0E
:1019400003C024DB8111C3C082E08093CC0480916A
:10195000C5048195880FECE1F2E2E81BF1092081D2
:1019600031812C51324236952795369527953695FB
:101970002795822F869520FD02C090E001C090E857
:10198000890FE82FEF70F0E0EE0FFF1F282F082ED1
:10199000000C330B2227330F221F3327E20FF31FD4
:1019A000DF01AA0FBB1FAA0FBB1FAA0FBB1FA05F9F
:1019B000BD4D1C969C9195FF8AC0EE0FFF1FEE0F48
:1019C000FF1FEE0FFF1FE45EFD4D00E20693811145
:1019D00079C080910D22843019F421DADFD977C0E3
:1019E00000911E2210911F22809163229091642207
:1019F000C0910922D0910A2298012C0F3D1F821715
:101A0000930718F48C010C1B1D0B8091612290919F
:101A10006222A80161E072E28C0F9D1FB5D0C00F59
:101A2000D11FC0930922D0930A220830110569F40E
:101A300080910B2290910C228C0F9D1F20915F2290
:101A4000309160228217930780F0E9E5F2E2C287C5
:101A5000D3870684F785E02D309729F019958111F9
:101A600002C0C1D934C0CDD932C0809163229091D7
:101A70006422C817D907F9F4E0916722F09168222F
:101A8000309711F4B0D923C01995811102C0ABD998
:101A90001EC020910B2230910C228091092290913E
:101AA0000A22820F931F80930B2290930C22109294
:101AB000092210920A22ECE1F2E202E0069300E22F
:101AC000069305C0803811F4B2D901C0D0DAFF9175
:101AD000EF91DF91CF91BF91AF919F918F917F91C6
:101AE0006F915F914F913F912F911F910F910F90A7
:101AF0000BBE0F900FBE0F901F90189587E080933C
:101B0000A2007894E3E5F2E210821182128213823D
:101B1000148281E085830E942B010E948C03FFCFF9
:101B20000895089580915222811180915122089543
:101B30000895089581E080935222089510925222D0
:101B4000089581E0809351220895109251220895C2
:101B5000AA1BBB1B51E107C0AA1FBB1FA617B707D3
:101B600010F0A61BB70B881F991F5A95A9F78095EF
:101B70009095BC01CD010895EE0FFF1F881F8BBF0C
:101B80000790F691E02D1994FB01DC0102C0019051
:0E1B90000D9241505040D8F70895F894FFCFC1
:101B9E004A20062000000E200A20BC2077200902D1
:101BAE003B00020100A03209040000010300000006
:101BBE00092111010001223B0007058103080002E3
:101BCE000904010001030000000921110100012296
:101BDE001B0007058203080004001201000200002A
:101BEE000008EB0333210001010200010501090485
:101BFE00A101A100050109300931150026FF00756C
:101C0E000895028102C0C09E01A801AB01770100B8
:101C1E000005010906A101050719E029E7150025B0
:101C2E0001750195088102810119002965150025AC
:101C3E006575089506810005081901290515002509
:101C4E000175019505910295039101C0DC01EE012C
:101C5E00F101B501000000030000000000000000CB
:101C6E000000000000000000000000000000000066
:101C7E000000000000000000000000000000000056
:101C8E000000000000000000000000000000000046
:101C9E0000000000000000000000436F6D706F73C5
:101CAE0069746520484944204B6579626F6172649E
:101CBE00202B204A6F79737469636B0041544D4534
:0A1CCE004C204153460004030904B2
:00000001FF
