:1000000004C1000023C1000021C100001FC1000085
:100010001DC100001BC1000019C1000017C1000074
:1000200015C1000013C1000011C100000FC1000084
:100030000DC100000BC1000009C1000007C1000094
:1000400005C1000003C1000001C10000FFC00000A5
:10005000FDC00000FBC00000F9C00000F7C00000B8
:10006000F5C00000F3C00000F1C00000EFC00000C8
:10007000EDC00000EBC00000E9C00000E7C00000D8
:10008000E5C00000E3C00000E1C00000DFC00000E8
:10009000DDC00000DBC00000D9C00000D7C00000F8
:1000A000D5C00000D3C00000D1C00000CFC0000008
:1000B000CDC00000CBC00000C9C00000C7C0000018
:1000C000C5C00000C3C00000C1C00000BFC0000028
:1000D000BDC00000BBC00000B9C00000B7C0000038
:1000E000B5C00000B3C00000B1C00000AFC0000048
:1000F000ADC00000ABC00000A9C00000A7C0000058
:10010000A5C00000A3C00000A1C000009FC0000067
:100110009DC000009BC0000099C0000097C0000077
:1001200095C0000093C0000091C000008FC0000087
:100130008DC000008BC0000089C0000087C0000097
:1001400085C0000083C0000081C000007FC00000A7
:100150007DC000007BC0000079C0000077C00000B7
:1001600075C0000073C0000071C000006FC00000C7
:100170006DC000006BC0000069C0000067C00000D7
:1001800065C0000063C0000061C000005FC00000E7
:100190005DC000005BC0000059C0000057C00000F7
:1001A00055C0000053C0000051C000004FC0000007
:1001B0004DC000004BC0000049C0000047C0000017
:1001C00045C0000043C0000041C000003FC0000027
:1001D0003DC000003BC0000039C0000037C0000037
:1001E00035C0000033C0000031C000002FC0000047
:1001F0002DC000000C94CE0B0C948D0C9307960729
:1002000099079C079F07A207A50711241FBECFEFE0
:10021000CDBFDFE5DEBF00E00CBF11E2A0E0B0E241
:10022000ECE9FBE100E00BBF02C007900D92AA339E
:10023000B107D9F722E2AAE3B1E201C01D92AD3CB9
:10024000B207E1F70E947D0D0C94CC0DD9CE8095BC
:100250008093040608958FEF80937000809371005F
:100260008093720080937300809374008093750074
:10027000809376000895CF93DF931F92CDB7DEB7BA
:100280009FB79983F8949981E82FF0E0E059FF4FE8
:1002900060958081682360839FBF0F90DF91CF912D
:1002A0000895CF93DF931F92CDB7DEB7863011F05C
:1002B00060E001C068E18091510081FD0DC08FB701
:1002C0008983F8949981E0E5F0E080818260808301
:1002D0009FBF818181FFFDCF636084E490E020D5E2
:1002E00060E480E0C8DF0F90DF91CF91089580E057
:1002F00008953091BF222091C022822F90E0039771
:10030000B1F4311116C08091C3229091C422892B7F
:1003100091F4EDEBF2E28AE391E2808791878DE937
:1003200091E0848795871286138681E0089580E0A6
:10033000089580E0089580E00895089510923E2188
:1003400010923C2181E080933A210C94A00D0895F5
:100350000C94A40D089529E731E04CE550E26CE3DC
:1003600071E28EE391E24BC0089580E008953091F0
:10037000BF222091C022822F90E00297B9F4311160
:1003800017C08091C3229091C422019799F4EDEB9C
:10039000F2E28AE491E2808791878BEF91E0848793
:1003A000958781E090E082879387089580E00895A3
:1003B00080E0089580E0089510924E2110924C2123
:1003C0001092402188E0E1E4F1E2DF011D928A957C
:1003D000E9F7109249210C94990D08950C949D0D04
:1003E000089527EB31E041E850E26CE471E28EE4DD
:1003F00091E205C0089580914A2129CF0895CF93B5
:10040000DF93DC01EA019091BD2299230CF068C0D2
:10041000907609F045C08091BE22863009F040C038
:1004200076D1DC011A962C911A97213209F077C007
:100430002091C02230E021323105B1F49C01275FC8
:100440003F4F2093C5223093C622EDEBF2E219967E
:100450008C912681378190E02817390708F4C9016B
:100460008287938781E068C0FC01478550E042178E
:10047000530709F056C0C093C522D093C622EDEBB6
:10048000F2E226813781DC0150968D919C91519743
:100490002817390708F4C9018287938781E04CC087
:1004A000903209F040C08091BE22823039F0833012
:1004B00071F08130D1F5F90119953EC0EDEBF2E212
:1004C000A087B18781E090E08287938735C0EDEB0C
:1004D000F2E26087718781E090E0828793872CC089
:1004E0009076903221F58091BE228A3039F08B309F
:1004F00051F08930F1F4F90119951EC08091C022A4
:100500008C9381E019C08091C3229091C422892BE1
:1005100091F48091BF22DB018C9381E00DC080E0DB
:100520000BC080E009C080E007C080E005C080E02B
:1005300003C080E001C080E0DF91CF910895E09199
:100540005421F09155210190F081E02D22813381D9
:100550002E0F3F1FFC014081E40FF11DE217F3074E
:10056000A0F481818430A1F0861306C014C081817B
:100570008430A1F08617A9F08081E80FF11DE21701
:10058000F307A8F380E090E0089580E090E00895FC
:1005900080E090E008958E2F9F2F089580E090E0F6
:1005A00008958E2F9F2F08958091BF228F7773C754
:1005B000089590915621992381F1E0915421F09171
:1005C00055210190F081E02D9481891740F5E09349
:1005D0005221F0935321228133812E0F3F1FE217C6
:1005E000F307F8F49181943061F49281891309C082
:1005F0009381961306C0E0935221F093532181E03A
:1006000008959081E90FF11DE217F30758F3E09385
:100610005221F093532180E0089580E0089580E016
:10062000089580E00895EF92FF921F93CF93DF9398
:10063000C82F60E0BEDF182F882381F1A0915421DC
:10064000B0915521EC2FF0E0EE0FFF1F12968D9127
:100650009C911397E80FF91FE080F180D70116965F
:10066000ED91FC9117971995682F8C2FA2DF182F09
:100670008823A1F0C0915221D091532165E0CE0191
:100680005EDFEC01892B21F08A810E94950BF6CF69
:10069000D7011296ED91FC9113971995812FDF9157
:1006A000CF911F91FF90EF9008951F93CF93DF9309
:1006B000182F7FDF882339F1C0915221D091532127
:1006C00065E0CE013CDFEC01892B41F04C815D817E
:1006D0006B818A81EDD68111F3CF15C0A091542191
:1006E000B0915521E12FF0E0EE0FFF1F12968D9192
:1006F0009C911397E80FF91F0190F081E02D019074
:10070000F081E02D1995DF91CF911F91089580918F
:10071000522190915321089532C60895CF9380912C
:1007200056218823C1F0E0915421F0915521019088
:10073000F081E02D8481882371F0C0E08C2F73DF7D
:10074000CF5FE0915421F09155210190F081E02D8F
:100750008481C81798F31092562180915A2181FD07
:100760000E94980D10925A2110925B21CF9108950A
:10077000CF9380915621882349F1A0915421B091C3
:100780005521ED91FC91119784818823F9F0C0E007
:10079000EC2FF0E0EE0FFF1F12968D919C911397B6
:1007A000E80FF91F0190F081E02D0084F185E02D24
:1007B000309709F01995CF5FA0915421B091552140
:1007C000ED91FC9111978481C81710F3CF91089592
:1007D0000F931F93CF93DF93EDEBF2E21286138614
:1007E0001486158616861786808188230CF07EC2B3
:1007F0002091C3223091C4222115310509F07BC21A
:100800006DC28F7109F0A0C09091BE22963079F030
:10081000983009F48FC0911197C02230310509F04A
:1008200019C262E070E08AE591E23BD669C280912C
:10083000BF229091C022292F332722303105A9F001
:1008400020F42130310541F0C7C123303105D9F101
:100850002F30310551F1C0C18091002090910120CD
:10086000DC016C9170E01DD656C0E0910020F09143
:1008700001202189821708F0EDC19927880F991F5F
:10088000880F991FE0910220F0910320E80FF91FD3
:1008900080819181FC016281738103D6E091C52240
:1008A000F091C62282E0818336C08091042090912D
:1008B0000520009709F4CEC1DC0112966D917C9160
:1008C0001397EFD528C099278130910571F038F042
:1008D000029709F08AC1EAE0F1E231E209C064E07E
:1008E00070E086E391E2DDD516C0ECE2F1E239E09A
:1008F000A8ECB0E220E0819190E08D939D932F5F72
:100900002317C8F3632F660F6E5F6093C62070E0F5
:1009100086EC90E2C6D5EDEBF2E2868197812285E6
:1009200033858217930708F0EBC18093C722909319
:10093000C822E6C12130310509F08CC161E070E0C8
:1009400086E591E2AED5DCC18130E1F59091BE2221
:100950009A30C1F52130310509F04CC18091562102
:10096000882309F447C1C091C122D091C2220091CD
:10097000542110915521D801ED91FC918481C81723
:1009800008F038C160E08C2F14DE882309F42DC1F3
:10099000CE019927880F991FD8011296ED91FC91ED
:1009A0001397E80FF91F0190F081E02D8681978160
:1009B000FC0119958093582161E070E088E591E28F
:1009C00070D59EC1823009F010C18091BE22811184
:1009D00005C12230310509F03DC18091C122F9D510
:1009E00090E0809350219093512162E070E080E587
:1009F00091E257D585C18F7109F09FC09091BE22B9
:100A0000933091F118F49130A9F097C0953021F00E
:100A1000993009F443C091C08091C3229091C422BF
:100A2000892B09F017C184ED92E08093C92290933D
:100A3000CA2266C18091C3229091C422892B09F0F9
:100A400009C18091BF229091C022019709F002C193
:100A500080915A2190915B218D7F80935A219093B0
:100A60005B210E94980D4CC18091C3229091C422B9
:100A7000892B09F0EFC08091BF229091C02201978D
:100A800009F0AEC080915A2190915B2182608093E1
:100A90005A2190935B210E94970D32C18091C3220D
:100AA0009091C422892B09F0D5C0F8D4882309F489
:100AB0009CC02091BF223091C0223327E0910020BA
:100AC000F0910120818990E08217930708F48DC08E
:100AD00025DE8091BF229091C022809356218823E9
:100AE00009F40EC199278150904C880F991F880FE7
:100AF000991FE0910220F0910320E80FF91FE09385
:100B00005421F09355210190F081E02D84818823B8
:100B100009F4F6C0C0E060E08C2FC7DD882309F43B
:100B200064C0CF5FE0915421F09155210190F08194
:100B3000E02D8481C81778F3E3C08130E9F4909107
:100B4000BE229B30C9F48091C3229091C422892B8C
:100B500009F050C080915621882309F44BC0EDEB79
:100B6000F2E2C481D2818C2F5EDD882309F43DC07E
:100B70006D2F8C2F9ADD37C08230B9F58091BE225F
:100B8000813019F0833099F02DC08091C32290916B
:100B9000C422892B09F05EC08091BF229091C022AF
:100BA000892B09F057C08091C1222ED51CC080919D
:100BB000C3229091C422892B09F04CC08091BF229E
:100BC0009091C022892B09F045C0CDEBD2E28C81F7
:100BD0005DD58C81C6D507C080E005C080E003C02C
:100BE00080E001C080E081118CC08091BD228F71B6
:100BF000813081F580915621882309F471C00091DC
:100C0000C1221091C222C0915421D0915521E88176
:100C1000F9818481081708F065C060E0802FC9DC85
:100C20008823C1F0F801FF27CF01880F991FEA81BF
:100C3000FB81E80FF91FC081D181EE81FF811995F9
:100C4000682F802FB6DC882329F0EC81FD8119956F
:100C5000811157C08091BD228F71823009F044C04C
:100C6000809156218823B1F1A0915421B091552152
:100C7000ED91FC9111978481882371F1C0E0EC2FF4
:100C8000F0E0EE0FFF1F12968D919C911397E80FE5
:100C9000F91F00811181D8011696ED91FC911797EB
:100CA0001995682F8C2F85DC882359F1D80114966B
:100CB000ED91FC9115971995811123C0CF5FA091FB
:100CC0005421B0915521ED91FC9111979481C91750
:100CD000B0F217C080E015C080E013C080E011C002
:100CE00080E00FC080E00DC080E00BC0982F9076B0
:100CF00009F07BCF80CE982F907609F076CF81CD0A
:100D000081E0DF91CF911F910F9108954091CA0129
:100D1000E62FF72F8093CA0184914093CA0108956A
:100D20001BBEFC0128ED24BF60830895CF93DF93A1
:100D30001F921F92CDB7DEB7811126C09091B422C9
:100D40009923F9F09091B822911101C0FFCF9FB77C
:100D50009A83F8942A81E7EBF2E291819150918392
:100D60002FBF0FC09091B8229F3F09F4FFCF9FB7CC
:100D70009983F8942981E7EBF2E291819F5F918357
:100D80002FBF8093B42205C09091B422992351F3D0
:100D9000F8CF0F900F90DF91CF9108950F93E8EC6B
:100DA000F4E080818F7D808380818F7D8083E8E780
:100DB000F2E202E0059310927A2210927B2200E286
:100DC000069300E40693E0E7F2E200E40693EDEB1D
:100DD000F2E21486158616861786128613861092FE
:100DE0005F220F9108950F9385E080935F22E9E7DA
:100DF000F2E204E00593E1E7F2E204E005930F91EB
:100E000008950F9383E080935F2210927A221092CC
:100E10007B22E8E7F2E202E006930F910895E09169
:100E2000C922F091CA22309709F0199508950F93BD
:100E3000CF93DF9380915F22833019F4F0DFAEDF30
:100E40005EC080915B2290915C22C091C722D091BC
:100E5000C822C81BD90B71F520915D2230915E220A
:100E6000820F931F80935D2290935E222091C32274
:100E70003091C4228217930721F080915C2188234E
:100E800041F084E080935F22E0E7F2E202E0069323
:100E900036C0E091CB22F091CC22309799F0199591
:100EA000882381F010925B2210925C22C091C722AD
:100EB000D091C822C830D10528F010925C21C8E03A
:100EC000D0E003C081E080935C21E0E6F2E2C28FD3
:100ED000D38F80915B2290915C222091C52230912A
:100EE000C622280F391F248F358FC80FD91FC093F2
:100EF0005B22D0935C22E8E7F2E202E00693DF9106
:100F0000CF910F910895FC018181E82FE7708E2F1A
:100F100090E0FC013197E730F105D0F48827E250EA
:100F2000FF4F8F4F28C680E190E0089580E290E067
:100F3000089580E490E0089580E890E0089580E0CE
:100F400091E0089580E092E008958FEF93E0089596
:100F500088E090E00895282F2F7030E0220F331F93
:100F6000082E000C990B8827990F881F9927820F4C
:100F7000931F02979C01220F331F220F331F220F52
:100F8000331F820F931F835E9D4D08950F93CF9360
:100F90008091CC0480FF64C081E08093CC04E0E7C2
:100FA000F2E200E80693E8E7F2E200E806938093B5
:100FB000CA04E0E7F2E200E1069380915F22882311
:100FC00029F08350823008F42ADFE8DE8091722213
:100FD00090917322089709F045C088E0E3E5F2E2BA
:100FE000ADEBB2E201900D928A95E1F7E8ECF4E006
:100FF000808180628083808180628083E9DBC82F6A
:10100000811103C0F0DEC1E02EC08091BD22882393
:101010006CF410925D2210925E2210925B2210926C
:101020005C2282E080935F2202DF1DC08091C32298
:101030009091C422892B11F4E4DE15C010925D2238
:1010400010925E2210925B2210925C2281E08093CB
:101050005F22E0E7F2E202E0069300E2069303C0BB
:10106000C0E001C0C1E08C2FCF910F9108958F9205
:101070009F92AF92BF92DF92EF92FF920F931F93D6
:10108000CF93DF93D82E67DF8C01CD2DCF70D0E0CA
:10109000CE01880F991FCD2D0D2C000CDD0BCC2718
:1010A000DD0FCC1FDD27C80FD91FCE01880F991F78
:1010B000880F991F880F991F9C0120593D4D790178
:1010C000C90121DF4C01DD200CF070C0FE01EE0FE4
:1010D000FF1FEE0FFF1FEE0FFF1FE05AFD4D268989
:1010E0003789D80115968D919C911697820F931F81
:1010F00015968D939C93169713962D913C9114976A
:101100008217930709F43CC0281B390B2115B4E062
:101110003B0738F02FEF33E0C901B40118D5281B85
:10112000390BF801808181FF09C0C901B4010FD5D5
:1011300041E0892B09F040E0842F01C080E0D80114
:101140009C9180FB91F99C93CC0FDD1FCC0FDD1F90
:10115000CC0FDD1FC05ADD4D1E8A1F8A2A8B3B8BA8
:1011600011962D913C91129715968D919C91169701
:10117000820F931F8C8B9D8BF70102E00693C6C0F4
:10118000D8018C9181FFAFC08D7F8C93CC0FDD1F78
:10119000CC0FDD1FCC0FDD1FC05ADD4D1E8A1F8A0C
:1011A0001A8A1B8AF70102E00693B0C0FE01EE0F17
:1011B000FF1FEE0FFF1FEE0FFF1FE05AFD4DA2882D
:1011C000B388D8018C9182FF19C01196ED91FC91E2
:1011D000129715962D913C91169713968D919C918F
:1011E0001497B401B4D4B0E4DB9EB0011124635E63
:1011F0007E4DAC01CF01820F931FC5D4F80125812C
:1012000036812A0D3B1D2583368383819481821785
:10121000930768F485839683CC0FDD1FCC0FDD1F09
:10122000CC0FDD1FC05ADD4D8E899F895CC0FE0149
:10123000EE0FFF1FEE0FFF1FEE0FFF1FE05AFD4DD9
:1012400046895789A416B50609F04DC028173907F5
:1012500009F449C0AC01421B530B9A01211554E01B
:10126000350740F02FEF33E0C901B40170D4281BDB
:10127000390B05C0C901B4016AD4281B390BFE0122
:10128000EE0FFF1FEE0FFF1FEE0FFF1FE05AFD4D89
:10129000128A138A2815390578F4D8018C91846054
:1012A0008C93B0E4DB9EC0011124835E9E4D848B41
:1012B000958B868A978A13C0F80141815281858176
:1012C0009681840F951FCC0FDD1FCC0FDD1FCC0F37
:1012D000DD1FC05ADD4D8C8B9D8B2E8B3F8BF70114
:1012E00002E0069313C0D8018C9180FF0FC08E7F5F
:1012F0008C931796ED91FC911897309739F01596CD
:101300006D917C9116974D2D80E01995DF91CF91CD
:101310001F910F91FF90EF90DF90BF90AF909F9043
:101320008F9008951F93CF93DF931F92CDB7DEB7B1
:101330008FB78983F894198181E0F8DCEAECF4E056
:1013400080E4808380E28083E1ECF4E0808181604E
:101350008083A9ECB4E08C9182608C93E8ECF4E09B
:101360008081806480838C9181608C93808180688F
:1013700080831FBF0F90DF91CF911F9108951F931E
:10138000CF93DF931F921F92CDB7DEB780E30E9409
:101390005101E0ECF4E08081806480838FB78A8320
:1013A000F8941A8180E090E0FC01EE0FFF1FEE0F31
:1013B000FF1FEE0FFF1FE05AFD4D118A0196883086
:1013C000910591F7EDE1F2E280818E7F8083E6E284
:1013D000F2E280818E7F8083EFE2F2E280818E7F75
:1013E0008083E8E3F2E280818E7F8083E1E4F2E2B1
:1013F00080818E7F8083EAE4F2E280818E7F808329
:101400006AE170E082E082DC8F3F19F08093FA0499
:1014100003C08FE18093FA046BE170E082E076DC38
:101420008F3F19F08093FB0403C08FE18093FB048E
:10143000E0ECF4E080818360808380818068808339
:1014400080818061808380E792E2868397838081B8
:10145000806280838FEF8093C504E8ECF4E08081A4
:10146000816080831092B4228091BC228F3F09F466
:10147000FFCF8FB78983F8949981E7EBF2E28581FA
:101480008F5F85839FBF4EDF1FBF0F900F90DF914F
:10149000CF911F9108958093C30408958091C30450
:1014A0000895EDEBF2E28087918762877387089554
:1014B000282F2F7030E0220F331F082E000C990BBD
:1014C0008827990F881F9927820F931FFC01EE0F21
:1014D000FF1FEE0FFF1FEE0FFF1FE05AFD4D21898A
:1014E000207C09F072C06370613011F018F404C000
:1014F00060EC03C060E801C060E440385105E9F0E9
:1015000050F440325105A9F040345105A1F040316A
:101510005105D9F40CC0411522E0520791F04F3F1C
:1015200023E0520781F04115514079F408C021E0D1
:101530000DC022E00BC023E009C024E007C025E075
:1015400005C026E003C027E001C020E0FC01EE0F4B
:10155000FF1FEE0FFF1FEE0FFF1FE05AFD4D118A18
:10156000DC01AA0FBB1FAA0FBB1FAA0FBB1FA059EC
:10157000BD4D36E03C93262B218BFC01EE0FFF1F67
:10158000EE0FFF1FEE0FFF1FE05AFD4D2189207C5B
:10159000203C69F4FC01EE0FFF1FEE0FFF1FEE0F62
:1015A000FF1FE05AFD4D21892770273081F0880FF9
:1015B000991F880F991F880F991FFC01E05AFD4D54
:1015C00081898062818B81E0089580E0089581E0C7
:1015D0000895E82FEF70F0E0EE0FFF1F082E000CCB
:1015E000990B8827990F881F9927E80FF91FEE0F8D
:1015F000FF1FEE0FFF1FEE0FFF1FE05AFD4D818909
:1016000082FB882780F908950F93282F2F7030E0F0
:10161000A901440F551F282F082E000C330B222739
:10162000330F221F3327240F351FF901EE0FFF1F41
:10163000EE0FFF1FEE0FFF1FE059FD4D01E0069377
:10164000F901EE0FFF1FEE0FFF1FEE0FFF1FE05A15
:10165000FD4D918992FF17C0220F331F220F331FB8
:10166000220F331FF901E05AFD4D91899B7F918B29
:1016700072DCFC01808180FF06C08E7F8083078042
:10168000F085E02D199581E00F910895FF920F9359
:101690001F93CF93DF93182FC82FCF70D0E0CE01C8
:1016A000880F991FC12F012E000CDD0BCC27DD0FF9
:1016B000CC1FDD27C80FD91F812F4DDCDC01FE01B7
:1016C000EE0FFF1FEE0FFF1FEE0FFF1FE059FD4D46
:1016D00002E005938C9180FF22C08E7F8C93179639
:1016E000ED91FC9118973097D1F011235CF4CC0F59
:1016F000DD1FCC0FDD1FCC0FDD1FC05ADD4D6E8905
:101700007F890AC0CC0FDD1FCC0FDD1FCC0FDD1F82
:10171000C05ADD4D6A897B89412F81E01995DF919F
:10172000CF911F910F91FF900895CF93C82FAEDFF7
:10173000EC2FEF70F0E0EE0FFF1F8C2FCC0F990B0A
:101740008827990F881F9927E80FF91FEE0FFF1FB1
:10175000EE0FFF1FEE0FFF1FE05AFD4D118ACF91D4
:101760000895E82FEF70F0E0EE0FFF1F282F082EEE
:10177000000C330B2227330F221F3327E20FF31FF6
:10178000EE0FFF1FEE0FFF1FEE0FFF1FE05AFD4D84
:1017900091899460918B7ADF81E008951F920F9276
:1017A0000FB60F9211240BB60F920F932F933F9306
:1017B0004F935F936F937F938F939F93AF93BF9359
:1017C000EF93FF938091CB0488233CF480E88093CF
:1017D000CA040E94B803A5D18CC08091CB0482FFBB
:1017E00020C084E08093CA048091782286FF81C063
:1017F0008091CC0481FD7DC0C9DB81117AC08091CC
:101800005F22813011F4FDDA74C0843009F071C0B8
:10181000E9E7F2E204E00593E1E7F2E204E0059390
:1018200068C08091CB0481FF5FC082E08093CA04CE
:101830008091702286FF5DC08091CC0481FD59C0EB
:10184000A5DB811156C080915F22823041F484E093
:1018500080935F22E0E7F2E202E006934AC0833021
:1018600009F047C0E9E7F2E204E00593E1E7F2E2BC
:1018700004E005933EC080E18093CA0481E006DF66
:1018800081E804DF82E002DF82E800DF83E0FEDE41
:1018900083E8FCDE0E948E031092C304E0E6F2E2CD
:1018A000118A96E0908B80E4818B118E908F818FCE
:1018B00083E592E2848B958B71DA1BC08091CB0417
:1018C00086FF07C080E48093CA0480E02FDA27D126
:1018D00010C08091CB0485FF0CC080E28093CA04C5
:1018E00081E024DA1DD105C08091CB0484FDC3CFF3
:1018F000E5CFFF91EF91BF91AF919F918F917F9134
:101900006F915F914F913F912F910F910F900BBE6F
:101910000F900FBE0F901F9018951F920F920FB649
:101920000F9211240BB60F920F931F932F933F9397
:101930004F935F936F937F938F939F93AF93BF93D7
:10194000CF93DF93EF93FF938091CC0481FD03C08D
:101950001DDB8111BBC082E08093CC048091C50463
:101960008195880FE0E7F2E2E81BF10920813181DF
:1019700020573242369527953695279536952795E7
:10198000822F869520FD02C090E001C090E8890F6B
:10199000E82FEF70F0E0EE0FFF1F282F082E000C4D
:1019A000330B2227330F221F3327E20FF31FDF01F0
:1019B000AA0FBB1FAA0FBB1FAA0FBB1FA059BD4D6B
:1019C0009C9195FF83C0FD0100E20693811179C0CF
:1019D00080915F22843019F422DAE0D977C0009137
:1019E0007222109173228091C7229091C822C091D7
:1019F0005B22D0915C2298012C0F3D1F8217930728
:101A000018F48C010C1B1D0B8091C5229091C622ED
:101A1000A80163E572E28C0F9D1FB5D0C00FD11FE6
:101A2000C0935B22D0935C220830110569F4809149
:101A30005D2290915E228C0F9D1F2091C3223091D8
:101A4000C4228217930780F0EDEBF2E2C287D387BE
:101A50000684F785E02D309729F01995811102C091
:101A6000C2D934C0CED932C08091C7229091C82249
:101A7000C817D907F9F4E091CB22F091CC22309726
:101A800011F4B1D923C01995811102C0ACD91EC07F
:101A900020915D2230915E2280915B2290915C22A8
:101AA000820F931F80935D2290935E2210925B229F
:101AB00010925C22E0E7F2E202E0069300E2069375
:101AC00005C0803811F4B3D901C0D1DAFF91EF918C
:101AD000DF91CF91BF91AF919F918F917F916F9146
:101AE0005F914F913F912F911F910F910F900BBEDE
:101AF0000F900FBE0F901F90189587E08093A20063
:101B00007894E7EBF2E2108211821282138214823F
:101B100081E085830E942B010E948C03FFCF0895F2
:101B200008958091B62281118091B522089508957B
:101B3000089581E08093B62208951092B622089508
:101B400081E08093B52208951092B5220895AA1BD2
:101B5000BB1B51E107C0AA1FBB1FA617B70710F098
:101B6000A61BB70B881F991F5A95A9F780959095CA
:101B7000BC01CD010895EE0FFF1F881F8BBF07909A
:101B8000F691E02D1994FB01DC0102C001900D9249
:0C1B900041505040D8F70895F894FFCF62
:101B9C004A20062000000E200A20BC2077200902D3
:101BAC003B00020100A03209040000010300000008
:101BBC00092111010001223B0007058103080002E5
:101BCC000904010001030000000921110100012298
:101BDC001B0007058203080004001201000200002C
:101BEC000008EB0333210001010200010501090487
:101BFC00A101A100050109300931150026FF00756E
:101C0C000895028102C0C09E01A801AB01770100BA
:101C1C000005010906A101050719E029E7150025B2
:101C2C0001750195088102810119002965150025AE
:101C3C00657508950681000508190129051500250B
:101C4C000175019505910295039101C0DC01EE012E
:101C5C00F101B501000000030000000000000000CD
:101C6C000000000000000000000000000000000068
:101C7C000000000000000000000000000000000058
:101C8C000000000000000000000000000000000048
:101C9C0000000000000000000000436F6D706F73C7
:101CAC0069746520484944204B6579626F617264A0
:101CBC00202B204A6F79737469636B0041544D4536
:0A1CCC004C204153460004030904B4
:00000001FF
